{
  "transactions": [
    {
      "hash": null,
      "transactionType": "CALL",
      "contractName": null,
      "contractAddress": "0x3fcbb8b5d85fb5f77603e11536b5e90fee37e6c0",
      "function": "migrateClient(string,(string,bytes[]),address)",
      "arguments": [
        "ledger-testnet-2",
        "(08-wasm-0, [0x696263, 0x])",
        "0x41Bb5228E7A900C45cAC7a35d5d3105F25147B0E"
      ],
      "transaction": {
        "from": "0x8948ca6bb5e2f50a235db3eff7c125188c6ad14b",
        "to": "0x3fcbb8b5d85fb5f77603e11536b5e90fee37e6c0",
        "gas": "0x129eb",
        "value": "0x0",
        "input": "0xcce0b265000000000000000000000000000000000000000000000000000000000000006000000000000000000000000000000000000000000000000000000000000000a000000000000000000000000041bb5228e7a900c45cac7a35d5d3105f25147b0e00000000000000000000000000000000000000000000000000000000000000106c65646765722d746573746e65742d320000000000000000000000000000000000000000000000000000000000000000000000000000000000000000000000400000000000000000000000000000000000000000000000000000000000000080000000000000000000000000000000000000000000000000000000000000000930382d7761736d2d300000000000000000000000000000000000000000000000000000000000000000000000000000000000000000000000000000000000000200000000000000000000000000000000000000000000000000000000000000400000000000000000000000000000000000000000000000000000000000000080000000000000000000000000000000000000000000000000000000000000000369626300000000000000000000000000000000000000000000000000000000000000000000000000000000000000000000000000000000000000000000000000",
        "nonce": "0x1",
        "chainId": "0xaa36a7"
      },
      "additionalContracts": [],
      "isFixedGasLimit": false
    }
  ],
  "receipts": [],
  "libraries": [],
  "pending": [],
  "returns": {},
  "timestamp": 1750786592,
  "chain": 11155111,
  "commit": "5408aeb"
}