{
  "transactions": [
    {
      "hash": null,
      "transactionType": "CALL",
      "contractName": null,
      "contractAddress": "0x3fcbb8b5d85fb5f77603e11536b5e90fee37e6c0",
      "function": "migrateClient(string,(string,bytes[]),address)",
      "arguments": [
        "hub-testnet-0",
        "(08-wasm-262, [0x696263, 0x])",
        "0x8Cc76686f7459d5C994966476e8B9c3bA74f2bCc"
      ],
      "transaction": {
        "from": "0x8948ca6bb5e2f50a235db3eff7c125188c6ad14b",
        "to": "0x3fcbb8b5d85fb5f77603e11536b5e90fee37e6c0",
        "gas": "0x129eb",
        "value": "0x0",
        "input": "0xcce0b265000000000000000000000000000000000000000000000000000000000000006000000000000000000000000000000000000000000000000000000000000000a00000000000000000000000008cc76686f7459d5c994966476e8b9c3ba74f2bcc000000000000000000000000000000000000000000000000000000000000000d6875622d746573746e65742d300000000000000000000000000000000000000000000000000000000000000000000000000000000000000000000000000000400000000000000000000000000000000000000000000000000000000000000080000000000000000000000000000000000000000000000000000000000000000b30382d7761736d2d323632000000000000000000000000000000000000000000000000000000000000000000000000000000000000000000000000000000000200000000000000000000000000000000000000000000000000000000000000400000000000000000000000000000000000000000000000000000000000000080000000000000000000000000000000000000000000000000000000000000000369626300000000000000000000000000000000000000000000000000000000000000000000000000000000000000000000000000000000000000000000000000",
        "nonce": "0x1",
        "chainId": "0xaa36a7"
      },
      "additionalContracts": [],
      "isFixedGasLimit": false
    }
  ],
  "receipts": [],
  "libraries": [],
  "pending": [],
  "returns": {},
  "timestamp": 1750373415,
  "chain": 11155111,
  "commit": "23ad578"
}