{
  "transactions": [
    {
      "hash": "0xb168612aaa7505ced6aa66042212706c0b9f154970ce34dca580e1e9b4ec5699",
      "transactionType": "CALL",
      "contractName": null,
      "contractAddress": "0x3fcbb8b5d85fb5f77603e11536b5e90fee37e6c0",
      "function": "setTimelockedAdmin(address)",
      "arguments": [
        "0x8948ca6bB5E2F50A235DB3eFf7c125188c6AD14b"
      ],
      "transaction": {
        "from": "0x64259f722a0868ccf58a935c61a292cea9df035a",
        "to": "0x3fcbb8b5d85fb5f77603e11536b5e90fee37e6c0",
        "gas": "0x14dc6",
        "value": "0x0",
        "input": "0x075beb640000000000000000000000008948ca6bb5e2f50a235db3eff7c125188c6ad14b",
        "nonce": "0x73",
        "chainId": "0xaa36a7"
      },
      "additionalContracts": [],
      "isFixedGasLimit": false
    }
  ],
  "receipts": [
    {
      "status": "0x1",
      "cumulativeGasUsed": "0x1cb8d21",
      "logs": [
        {
          "address": "0x3fcbb8b5d85fb5f77603e11536b5e90fee37e6c0",
          "topics": [
            "0xf6391f5c32d9c69d2a47ea670b442974b53935d1edc7fd64eb21e047a839171b",
            "0x0000000000000000000000000000000000000000000000000000000000000000",
            "0x00000000000000000000000064259f722a0868ccf58a935c61a292cea9df035a",
            "0x00000000000000000000000064259f722a0868ccf58a935c61a292cea9df035a"
          ],
          "data": "0x",
          "blockHash": "0x78e4d681576226d98c2d34c160e1ced02a38bbcb93f4aadee50e1b16c0af26fe",
          "blockNumber": "0x8039a0",
          "blockTimestamp": "0x68330cf4",
          "transactionHash": "0xb168612aaa7505ced6aa66042212706c0b9f154970ce34dca580e1e9b4ec5699",
          "transactionIndex": "0x111",
          "logIndex": "0x282",
          "removed": false
        },
        {
          "address": "0x3fcbb8b5d85fb5f77603e11536b5e90fee37e6c0",
          "topics": [
            "0x2f8788117e7eff1d82e926ec794901d17c78024a50270940304540a733656f0d",
            "0x0000000000000000000000000000000000000000000000000000000000000000",
            "0x0000000000000000000000008948ca6bb5e2f50a235db3eff7c125188c6ad14b",
            "0x00000000000000000000000064259f722a0868ccf58a935c61a292cea9df035a"
          ],
          "data": "0x",
          "blockHash": "0x78e4d681576226d98c2d34c160e1ced02a38bbcb93f4aadee50e1b16c0af26fe",
          "blockNumber": "0x8039a0",
          "blockTimestamp": "0x68330cf4",
          "transactionHash": "0xb168612aaa7505ced6aa66042212706c0b9f154970ce34dca580e1e9b4ec5699",
          "transactionIndex": "0x111",
          "logIndex": "0x283",
          "removed": false
        }
      ],
      "logsBloom": "0x00000004000000000000000000000000000000000000000000000000000000000000000000000000000000000000000000200000000000000000000000000000000010000000000000000000000000000000000000000000000000000004000040000000020000000000000000000c00000000000000000000000000000000000000020040000000000000000000000000000000000000000000000000000000000000000000000000000000000000000000000000000000001001000000000000000000020000000000000000000000000000000000000100000000000020004000000000000000000000000000000000000040000000000000000000000000",
      "type": "0x2",
      "transactionHash": "0xb168612aaa7505ced6aa66042212706c0b9f154970ce34dca580e1e9b4ec5699",
      "transactionIndex": "0x111",
      "blockHash": "0x78e4d681576226d98c2d34c160e1ced02a38bbcb93f4aadee50e1b16c0af26fe",
      "blockNumber": "0x8039a0",
      "gasUsed": "0xe439",
      "effectiveGasPrice": "0x10fe8a",
      "from": "0x64259f722a0868ccf58a935c61a292cea9df035a",
      "to": "0x3fcbb8b5d85fb5f77603e11536b5e90fee37e6c0",
      "contractAddress": null
    }
  ],
  "libraries": [],
  "pending": [],
  "returns": {},
  "timestamp": 1748176118,
  "chain": 11155111,
  "commit": "c52661e"
}