{
  "transactions": [
    {
      "hash": "0x818e55734e86c3b40566a8976410f52160a56c805eb0099a17993ce90f9066c2",
      "transactionType": "CALL",
      "contractName": null,
      "contractAddress": "0x3af134307d5ee90faa2ba9cdba14ba66414cf1a7",
      "function": "grantRole(bytes32,address)",
      "arguments": [
        "0x666dfa811e270e83c2bd4ad9f99097dd67360314afa06c40b6d52e73747af814",
        "0xb3999B2D30dD8c9faEcE5A8a503fAe42b8b1b614"
      ],
      "transaction": {
        "from": "0x64259f722a0868ccf58a935c61a292cea9df035a",
        "to": "0x3af134307d5ee90faa2ba9cdba14ba66414cf1a7",
        "gas": "0x12ea5",
        "value": "0x0",
        "input": "0x2f2ff15d666dfa811e270e83c2bd4ad9f99097dd67360314afa06c40b6d52e73747af814000000000000000000000000b3999b2d30dd8c9faece5a8a503fae42b8b1b614",
        "nonce": "0x56",
        "chainId": "0x1"
      },
      "additionalContracts": [],
      "isFixedGasLimit": false
    }
  ],
  "receipts": [
    {
      "status": "0x1",
      "cumulativeGasUsed": "0x1b58f87",
      "logs": [
        {
          "address": "0x3af134307d5ee90faa2ba9cdba14ba66414cf1a7",
          "topics": [
            "0x2f8788117e7eff1d82e926ec794901d17c78024a50270940304540a733656f0d",
            "0x666dfa811e270e83c2bd4ad9f99097dd67360314afa06c40b6d52e73747af814",
            "0x000000000000000000000000b3999b2d30dd8c9faece5a8a503fae42b8b1b614",
            "0x00000000000000000000000064259f722a0868ccf58a935c61a292cea9df035a"
          ],
          "data": "0x",
          "blockHash": "0xa4f92f546ab4cc37cdced51936279bed8bc37210752929963719499f59f3ef9d",
          "blockNumber": "0x153e983",
          "blockTimestamp": "0x67feb3f3",
          "transactionHash": "0x818e55734e86c3b40566a8976410f52160a56c805eb0099a17993ce90f9066c2",
          "transactionIndex": "0xc7",
          "logIndex": "0x299",
          "removed": false
        }
      ],
      "logsBloom": "0x00000004000000000000000000000100000000000000000002000000000000000000000000400000000000000000000000000000000000000000000000000040000200000000000000000000000000000000000000000000000000000000000000000000000000000000000000000400000000000000000000000000000000000000000040000000000040000000000000000000000000000000010000000000000000000000000800000000000000000000000000000000001000000000000000000000000000000000000000000000000000000000000100000000000000000008000000000000000000000000000000000040000000000000000000000000",
      "type": "0x2",
      "transactionHash": "0x818e55734e86c3b40566a8976410f52160a56c805eb0099a17993ce90f9066c2",
      "transactionIndex": "0xc7",
      "blockHash": "0xa4f92f546ab4cc37cdced51936279bed8bc37210752929963719499f59f3ef9d",
      "blockNumber": "0x153e983",
      "gasUsed": "0xdb1d",
      "effectiveGasPrice": "0x25603592",
      "from": "0x64259f722a0868ccf58a935c61a292cea9df035a",
      "to": "0x3af134307d5ee90faa2ba9cdba14ba66414cf1a7",
      "contractAddress": null
    }
  ],
  "libraries": [],
  "pending": [],
  "returns": {},
  "timestamp": 1744745462,
  "chain": 1,
  "commit": "ed11a21"
}