{
  "transactions": [
    {
      "hash": "0x507a26dc5f6213a4e08e66a65e77831e9933bfbe500dd9d1d190e74dd5a2f3ce",
      "transactionType": "CALL",
      "contractName": null,
      "contractAddress": "0xa348cfe719b63151f228e3c30eb424ba5a983012",
      "function": "grantTokenOperatorRole(address)",
      "arguments": [
        "0xb3999B2D30dD8c9faEcE5A8a503fAe42b8b1b614"
      ],
      "transaction": {
        "from": "0x64259f722a0868ccf58a935c61a292cea9df035a",
        "to": "0xa348cfe719b63151f228e3c30eb424ba5a983012",
        "gas": "0x16bce",
        "value": "0x0",
        "input": "0x6c0e87e1000000000000000000000000b3999b2d30dd8c9faece5a8a503fae42b8b1b614",
        "nonce": "0x4e",
        "chainId": "0x1"
      },
      "additionalContracts": [],
      "isFixedGasLimit": false
    }
  ],
  "receipts": [
    {
      "status": "0x1",
      "cumulativeGasUsed": "0x1bebfa7",
      "logs": [
        {
          "address": "0xa348cfe719b63151f228e3c30eb424ba5a983012",
          "topics": [
            "0x2f8788117e7eff1d82e926ec794901d17c78024a50270940304540a733656f0d",
            "0x62150a51582c26f4255242a3c4ca35fb04250e7315069523d650676aed01a56a",
            "0x000000000000000000000000b3999b2d30dd8c9faece5a8a503fae42b8b1b614",
            "0x00000000000000000000000064259f722a0868ccf58a935c61a292cea9df035a"
          ],
          "data": "0x",
          "blockHash": "0x9b0548acf7ba364c6e54fae85d70f12f16dae44d6e577fdb4a0e7d13eca628db",
          "blockNumber": "0x153c886",
          "blockTimestamp": "0x67fd259b",
          "transactionHash": "0x507a26dc5f6213a4e08e66a65e77831e9933bfbe500dd9d1d190e74dd5a2f3ce",
          "transactionIndex": "0x1db",
          "logIndex": "0x22a",
          "removed": false
        }
      ],
      "logsBloom": "0x00000004000010000000000000000000000000000000000000000000000000000000000000000000000000000000000000000000000000000000000000000040000000000000000000010000000000000000000000000000000000000000000000000000000000000000000000000400000000000000000000000000000000000000000040000000000000000000002000000000000000000000010000000400000000000000000000000400000000000000000000000000001000000000000000000000000000000000000000000000000000000000000100000000000000000008000000000000000000000000000000000040000020000000000000000000",
      "type": "0x2",
      "transactionHash": "0x507a26dc5f6213a4e08e66a65e77831e9933bfbe500dd9d1d190e74dd5a2f3ce",
      "transactionIndex": "0x1db",
      "blockHash": "0x9b0548acf7ba364c6e54fae85d70f12f16dae44d6e577fdb4a0e7d13eca628db",
      "blockNumber": "0x153c886",
      "gasUsed": "0xf8c2",
      "effectiveGasPrice": "0x98a96d9d",
      "from": "0x64259f722a0868ccf58a935c61a292cea9df035a",
      "to": "0xa348cfe719b63151f228e3c30eb424ba5a983012",
      "contractAddress": null
    }
  ],
  "libraries": [],
  "pending": [],
  "returns": {},
  "timestamp": 1744643486,
  "chain": 1,
  "commit": "607d191"
}