{
  "transactions": [
    {
      "hash": "0xfa0d2720730b52ee393ce69bc0834d09f0d9cf5b2cdde7282eeaac06fd1a7074",
      "transactionType": "CALL",
      "contractName": null,
      "contractAddress": "0x3af134307d5ee90faa2ba9cdba14ba66414cf1a7",
      "function": "grantRole(bytes32,address)",
      "arguments": [
        "0xe2b7fb3b832174769106daebcfd6d1970523240dda11281102db9363b83b0dc4",
        "0x4bc16fEC05B2D9Fa72AdE54BB25A464a20D0D49b"
      ],
      "transaction": {
        "from": "0x64259f722a0868ccf58a935c61a292cea9df035a",
        "to": "0x3af134307d5ee90faa2ba9cdba14ba66414cf1a7",
        "gas": "0x12ea5",
        "value": "0x0",
        "input": "0x2f2ff15de2b7fb3b832174769106daebcfd6d1970523240dda11281102db9363b83b0dc40000000000000000000000004bc16fec05b2d9fa72ade54bb25a464a20d0d49b",
        "nonce": "0x4f",
        "chainId": "0x1"
      },
      "additionalContracts": [],
      "isFixedGasLimit": false
    }
  ],
  "receipts": [
    {
      "status": "0x1",
      "cumulativeGasUsed": "0x11281d3",
      "logs": [
        {
          "address": "0x3af134307d5ee90faa2ba9cdba14ba66414cf1a7",
          "topics": [
            "0x2f8788117e7eff1d82e926ec794901d17c78024a50270940304540a733656f0d",
            "0xe2b7fb3b832174769106daebcfd6d1970523240dda11281102db9363b83b0dc4",
            "0x0000000000000000000000004bc16fec05b2d9fa72ade54bb25a464a20d0d49b",
            "0x00000000000000000000000064259f722a0868ccf58a935c61a292cea9df035a"
          ],
          "data": "0x",
          "blockHash": "0xdd6939620c70fd3d90a4fd9b34a205ee07edb369f5fcc50d155eb0eb8b3b3d24",
          "blockNumber": "0x153e2e3",
          "blockTimestamp": "0x67fe63fb",
          "transactionHash": "0xfa0d2720730b52ee393ce69bc0834d09f0d9cf5b2cdde7282eeaac06fd1a7074",
          "transactionIndex": "0xc2",
          "logIndex": "0x203",
          "removed": false
        }
      ],
      "logsBloom": "0x00000004000000000000000000000100000000000020000002000000000000000000000000000000000000000000000000000000000000000000000000000000000200000000000000000000000000000000000000000000000000008000000000000000000000000000000000000400000000000000000000000000000000000000000040000000000200000000000000000000000000000000000000000000000000000000000000000000000000000000000000000000001000000002000000000000000000000000000000000000000000000000000100000000000000000000000000000000000000000000000000000040000000000002100000000000",
      "type": "0x2",
      "transactionHash": "0xfa0d2720730b52ee393ce69bc0834d09f0d9cf5b2cdde7282eeaac06fd1a7074",
      "transactionIndex": "0xc2",
      "blockHash": "0xdd6939620c70fd3d90a4fd9b34a205ee07edb369f5fcc50d155eb0eb8b3b3d24",
      "blockNumber": "0x153e2e3",
      "gasUsed": "0xdb1d",
      "effectiveGasPrice": "0x3a5f0727",
      "from": "0x64259f722a0868ccf58a935c61a292cea9df035a",
      "to": "0x3af134307d5ee90faa2ba9cdba14ba66414cf1a7",
      "contractAddress": null
    }
  ],
  "libraries": [],
  "pending": [],
  "returns": {},
  "timestamp": 1744724990,
  "chain": 1,
  "commit": "814faaa"
}