{
  "transactions": [
    {
      "hash": null,
      "transactionType": "CALL",
      "contractName": null,
      "contractAddress": "0x3a4e076d1c5ebfc813993c497bb284598121b515",
      "function": "grantERC20CustomizerRole(address)",
      "arguments": [
        "0x4b46ea82D80825CA5640301f47C035942e6D9A46"
      ],
      "transaction": {
        "from": "0x8948ca6bb5e2f50a235db3eff7c125188c6ad14b",
        "to": "0x3a4e076d1c5ebfc813993c497bb284598121b515",
        "gas": "0x157b6",
        "value": "0x0",
        "input": "0x66780af90000000000000000000000004b46ea82d80825ca5640301f47c035942e6d9a46",
        "nonce": "0x1",
        "chainId": "0xaa36a7"
      },
      "additionalContracts": [],
      "isFixedGasLimit": false
    }
  ],
  "receipts": [],
  "libraries": [],
  "pending": [],
  "returns": {},
  "timestamp": 1748531428,
  "chain": 11155111,
  "commit": "10d6a9a"
}