{
  "transactions": [
    {
      "hash": null,
      "transactionType": "CALL",
      "contractName": null,
      "contractAddress": "0x3a4e076d1c5ebfc813993c497bb284598121b515",
      "function": "grantERC20CustomizerRole(address)",
      "arguments": [
        "0x15C1e4924e4f8cE261B5D5cfEB9B96c4bF035DF9"
      ],
      "transaction": {
        "from": "0x8948ca6bb5e2f50a235db3eff7c125188c6ad14b",
        "to": "0x3a4e076d1c5ebfc813993c497bb284598121b515",
        "gas": "0x157b6",
        "value": "0x0",
        "input": "0x66780af900000000000000000000000015c1e4924e4f8ce261b5d5cfeb9b96c4bf035df9",
        "nonce": "0x1",
        "chainId": "0xaa36a7"
      },
      "additionalContracts": [],
      "isFixedGasLimit": false
    }
  ],
  "receipts": [],
  "libraries": [],
  "pending": [],
  "returns": {},
  "timestamp": 1748428946,
  "chain": 11155111,
  "commit": "d09faeb"
}