{
  "transactions": [
    {
      "hash": null,
      "transactionType": "CALL",
      "contractName": null,
      "contractAddress": "0x3a4e076d1c5ebfc813993c497bb284598121b515",
      "function": "grantERC20CustomizerRole(address)",
      "arguments": [
        "0x8948ca6bB5E2F50A235DB3eFf7c125188c6AD14b"
      ],
      "transaction": {
        "from": "0x8948ca6bb5e2f50a235db3eff7c125188c6ad14b",
        "to": "0x3a4e076d1c5ebfc813993c497bb284598121b515",
        "gas": "0x157b6",
        "value": "0x0",
        "input": "0x66780af90000000000000000000000008948ca6bb5e2f50a235db3eff7c125188c6ad14b",
        "nonce": "0x1",
        "chainId": "0xaa36a7"
      },
      "additionalContracts": [],
      "isFixedGasLimit": false
    }
  ],
  "receipts": [],
  "libraries": [],
  "pending": [],
  "returns": {},
  "timestamp": 1748428464,
  "chain": 11155111,
  "commit": "d09faeb"
}