{
  "transactions": [
    {
      "hash": "0x234bb7632232f56206511395402b09e01726d489cfb6de1060ef8af432519ca7",
      "transactionType": "CALL",
      "contractName": null,
      "contractAddress": "0x14862c03a0caccc1ab328b062e64e31b2a1afcd7",
      "function": "setMetadata(uint8,string,string)",
      "arguments": [
        "18",
        "SEDA",
        "SEDA"
      ],
      "transaction": {
        "from": "0x64259f722a0868ccf58a935c61a292cea9df035a",
        "to": "0x14862c03a0caccc1ab328b062e64e31b2a1afcd7",
        "gas": "0x1da52",
        "value": "0x0",
        "input": "0xb090e66c0000000000000000000000000000000000000000000000000000000000000012000000000000000000000000000000000000000000000000000000000000006000000000000000000000000000000000000000000000000000000000000000a00000000000000000000000000000000000000000000000000000000000000004534544410000000000000000000000000000000000000000000000000000000000000000000000000000000000000000000000000000000000000000000000045345444100000000000000000000000000000000000000000000000000000000",
        "nonce": "0x4d",
        "chainId": "0x1"
      },
      "additionalContracts": [],
      "isFixedGasLimit": false
    }
  ],
  "receipts": [
    {
      "status": "0x1",
      "cumulativeGasUsed": "0x1981ba4",
      "logs": [],
      "logsBloom": "0x00000000000000000000000000000000000000000000000000000000000000000000000000000000000000000000000000000000000000000000000000000000000000000000000000000000000000000000000000000000000000000000000000000000000000000000000000000000000000000000000000000000000000000000000000000000000000000000000000000000000000000000000000000000000000000000000000000000000000000000000000000000000000000000000000000000000000000000000000000000000000000000000000000000000000000000000000000000000000000000000000000000000000000000000000000000",
      "type": "0x2",
      "transactionHash": "0x234bb7632232f56206511395402b09e01726d489cfb6de1060ef8af432519ca7",
      "transactionIndex": "0x81",
      "blockHash": "0xe5e02ca84a9be2d6bb3184a0a531f5a043543ebce07dec81b200404573e8e397",
      "blockNumber": "0x153adb0",
      "gasUsed": "0x14453",
      "effectiveGasPrice": "0x18483d5f",
      "from": "0x64259f722a0868ccf58a935c61a292cea9df035a",
      "to": "0x14862c03a0caccc1ab328b062e64e31b2a1afcd7",
      "contractAddress": null
    }
  ],
  "libraries": [],
  "pending": [],
  "returns": {},
  "timestamp": 1744560758,
  "chain": 1,
  "commit": "607d191"
}