{
  "transactions": [
    {
      "hash": "0xaa0b99cb5a7ac5f875a665fa1096426d475d01d06bbf9e5f4aacb2942afe5afa",
      "transactionType": "CALL",
      "contractName": null,
      "contractAddress": "0x2af0a519bf97a16acd30325ce1b2ee131c87e57c",
      "function": "setMetadata(uint8,string,string)",
      "arguments": [
        "6",
        "Cosmos Hub Testnet",
        "ATOM"
      ],
      "transaction": {
        "from": "0x64259f722a0868ccf58a935c61a292cea9df035a",
        "to": "0x2af0a519bf97a16acd30325ce1b2ee131c87e57c",
        "gas": "0xf7e8",
        "value": "0x0",
        "input": "0xb090e66c0000000000000000000000000000000000000000000000000000000000000006000000000000000000000000000000000000000000000000000000000000006000000000000000000000000000000000000000000000000000000000000000a00000000000000000000000000000000000000000000000000000000000000012436f736d6f732048756220546573746e65740000000000000000000000000000000000000000000000000000000000000000000000000000000000000000000441544f4d00000000000000000000000000000000000000000000000000000000",
        "nonce": "0x1a",
        "chainId": "0x1"
      },
      "additionalContracts": [],
      "isFixedGasLimit": false
    }
  ],
  "receipts": [
    {
      "status": "0x1",
      "cumulativeGasUsed": "0x1ae752f",
      "logs": [],
      "logsBloom": "0x00000000000000000000000000000000000000000000000000000000000000000000000000000000000000000000000000000000000000000000000000000000000000000000000000000000000000000000000000000000000000000000000000000000000000000000000000000000000000000000000000000000000000000000000000000000000000000000000000000000000000000000000000000000000000000000000000000000000000000000000000000000000000000000000000000000000000000000000000000000000000000000000000000000000000000000000000000000000000000000000000000000000000000000000000000000",
      "type": "0x2",
      "transactionHash": "0xaa0b99cb5a7ac5f875a665fa1096426d475d01d06bbf9e5f4aacb2942afe5afa",
      "transactionIndex": "0x10c",
      "blockHash": "0x956d5b195129ef0d3e00c437f295df0a2a659cc77f5ed1daac2619e833210103",
      "blockNumber": "0x151d145",
      "gasUsed": "0xa983",
      "effectiveGasPrice": "0x5f670cfb",
      "from": "0x64259f722a0868ccf58a935c61a292cea9df035a",
      "to": "0x2af0a519bf97a16acd30325ce1b2ee131c87e57c",
      "contractAddress": null
    }
  ],
  "libraries": [],
  "pending": [],
  "returns": {},
  "timestamp": 1743090002,
  "chain": 1,
  "commit": "3f332ab"
}