{
  "transactions": [
    {
      "hash": "0x80f80c32397df2791423cf8d3df036c2c245bf25d9499acd07dee4f4bb1b7536",
      "transactionType": "CALL",
      "contractName": null,
      "contractAddress": "0x6b7de496080e26ee8567a60b7b823b7e28ebe224",
      "function": "setMetadata(uint8,string,string)",
      "arguments": [
        "6",
        "Nillion",
        "NIL"
      ],
      "transaction": {
        "from": "0x64259f722a0868ccf58a935c61a292cea9df035a",
        "to": "0x6b7de496080e26ee8567a60b7b823b7e28ebe224",
        "gas": "0x1da75",
        "value": "0x0",
        "input": "0xb090e66c0000000000000000000000000000000000000000000000000000000000000006000000000000000000000000000000000000000000000000000000000000006000000000000000000000000000000000000000000000000000000000000000a000000000000000000000000000000000000000000000000000000000000000074e696c6c696f6e0000000000000000000000000000000000000000000000000000000000000000000000000000000000000000000000000000000000000000034e494c0000000000000000000000000000000000000000000000000000000000",
        "nonce": "0x4c",
        "chainId": "0x1"
      },
      "additionalContracts": [],
      "isFixedGasLimit": false
    }
  ],
  "receipts": [
    {
      "status": "0x1",
      "cumulativeGasUsed": "0x848849",
      "logs": [],
      "logsBloom": "0x00000000000000000000000000000000000000000000000000000000000000000000000000000000000000000000000000000000000000000000000000000000000000000000000000000000000000000000000000000000000000000000000000000000000000000000000000000000000000000000000000000000000000000000000000000000000000000000000000000000000000000000000000000000000000000000000000000000000000000000000000000000000000000000000000000000000000000000000000000000000000000000000000000000000000000000000000000000000000000000000000000000000000000000000000000000",
      "type": "0x2",
      "transactionHash": "0x80f80c32397df2791423cf8d3df036c2c245bf25d9499acd07dee4f4bb1b7536",
      "transactionIndex": "0x74",
      "blockHash": "0xc5ac5b38f45abd41ba78fa15e673c2a1903d3198a039285d93f57d21143f49e3",
      "blockNumber": "0x153ad91",
      "gasUsed": "0x1446b",
      "effectiveGasPrice": "0x206058f3",
      "from": "0x64259f722a0868ccf58a935c61a292cea9df035a",
      "to": "0x6b7de496080e26ee8567a60b7b823b7e28ebe224",
      "contractAddress": null
    }
  ],
  "libraries": [],
  "pending": [],
  "returns": {},
  "timestamp": 1744560373,
  "chain": 1,
  "commit": "607d191"
}