{
  "transactions": [
    {
      "hash": "0x3e0c6b7051c12907076e0bfb0867a467b3156a7a31bd31b3cdb1c90856bff8fb",
      "transactionType": "CALL",
      "contractName": null,
      "contractAddress": "0xff54b0bb72d41595f5606142d2a81742feca8ec3",
      "function": "setMetadata(uint8,string,string)",
      "arguments": [
        "6",
        "Cosmos Hub Testnet",
        "ATOM"
      ],
      "transaction": {
        "from": "0x64259f722a0868ccf58a935c61a292cea9df035a",
        "to": "0xff54b0bb72d41595f5606142d2a81742feca8ec3",
        "gas": "0x1db48",
        "value": "0x0",
        "input": "0xb090e66c0000000000000000000000000000000000000000000000000000000000000006000000000000000000000000000000000000000000000000000000000000006000000000000000000000000000000000000000000000000000000000000000a00000000000000000000000000000000000000000000000000000000000000012436f736d6f732048756220546573746e65740000000000000000000000000000000000000000000000000000000000000000000000000000000000000000000441544f4d00000000000000000000000000000000000000000000000000000000",
        "nonce": "0x1c",
        "chainId": "0x1"
      },
      "additionalContracts": [],
      "isFixedGasLimit": false
    }
  ],
  "receipts": [
    {
      "status": "0x1",
      "cumulativeGasUsed": "0x1951fa2",
      "logs": [],
      "logsBloom": "0x00000000000000000000000000000000000000000000000000000000000000000000000000000000000000000000000000000000000000000000000000000000000000000000000000000000000000000000000000000000000000000000000000000000000000000000000000000000000000000000000000000000000000000000000000000000000000000000000000000000000000000000000000000000000000000000000000000000000000000000000000000000000000000000000000000000000000000000000000000000000000000000000000000000000000000000000000000000000000000000000000000000000000000000000000000000",
      "type": "0x2",
      "transactionHash": "0x3e0c6b7051c12907076e0bfb0867a467b3156a7a31bd31b3cdb1c90856bff8fb",
      "transactionIndex": "0x136",
      "blockHash": "0x704308e6722eb00c52e1b9b1220c1fa21cde78689115e31146347c37da45647b",
      "blockNumber": "0x151d1b9",
      "gasUsed": "0x144fb",
      "effectiveGasPrice": "0x443fe085",
      "from": "0x64259f722a0868ccf58a935c61a292cea9df035a",
      "to": "0xff54b0bb72d41595f5606142d2a81742feca8ec3",
      "contractAddress": null
    }
  ],
  "libraries": [],
  "pending": [],
  "returns": {},
  "timestamp": 1743091395,
  "chain": 1,
  "commit": "3f332ab"
}