{
  "transactions": [
    {
      "hash": "0xa70ca69a3352e768d7e3f1682ccd416b285eb425729cf8316e4e061a8ed3e864",
      "transactionType": "CALL",
      "contractName": null,
      "contractAddress": "0xbf6bc6782f7eb580312cc09b976e9329f3e027b3",
      "function": "setMetadata(uint8,string,string)",
      "arguments": [
        "6",
        "Cosmos Hub ATOM",
        "ATOM"
      ],
      "transaction": {
        "from": "0x64259f722a0868ccf58a935c61a292cea9df035a",
        "to": "0xbf6bc6782f7eb580312cc09b976e9329f3e027b3",
        "gas": "0x1c0ae",
        "value": "0x0",
        "input": "0xb090e66c0000000000000000000000000000000000000000000000000000000000000006000000000000000000000000000000000000000000000000000000000000006000000000000000000000000000000000000000000000000000000000000000a0000000000000000000000000000000000000000000000000000000000000000f436f736d6f73204875622041544f4d0000000000000000000000000000000000000000000000000000000000000000000000000000000000000000000000000441544f4d00000000000000000000000000000000000000000000000000000000",
        "nonce": "0x23",
        "chainId": "0x1"
      },
      "additionalContracts": [],
      "isFixedGasLimit": false
    }
  ],
  "receipts": [
    {
      "status": "0x1",
      "cumulativeGasUsed": "0xac44dc",
      "logs": [],
      "logsBloom": "0x00000000000000000000000000000000000000000000000000000000000000000000000000000000000000000000000000000000000000000000000000000000000000000000000000000000000000000000000000000000000000000000000000000000000000000000000000000000000000000000000000000000000000000000000000000000000000000000000000000000000000000000000000000000000000000000000000000000000000000000000000000000000000000000000000000000000000000000000000000000000000000000000000000000000000000000000000000000000000000000000000000000000000000000000000000000",
      "type": "0x2",
      "transactionHash": "0xa70ca69a3352e768d7e3f1682ccd416b285eb425729cf8316e4e061a8ed3e864",
      "transactionIndex": "0x8c",
      "blockHash": "0x6dc35a4f71b2562e8764ebb68f602c3b8aea58b7e2431cd50660c1cfccf858ad",
      "blockNumber": "0x151e8ee",
      "gasUsed": "0x144d7",
      "effectiveGasPrice": "0x2a614109",
      "from": "0x64259f722a0868ccf58a935c61a292cea9df035a",
      "to": "0xbf6bc6782f7eb580312cc09b976e9329f3e027b3",
      "contractAddress": null
    }
  ],
  "libraries": [],
  "pending": [],
  "returns": {},
  "timestamp": 1743163128,
  "chain": 1,
  "commit": "4584369"
}