{
  "transactions": [
    {
      "hash": null,
      "transactionType": "CALL",
      "contractName": null,
      "contractAddress": "0x3af134307d5ee90faa2ba9cdba14ba66414cf1a7",
      "function": "migrateClient(string,(string,bytes[]),address)",
      "arguments": [
        "cosmoshub-0",
        "(08-wasm-1369, [0x696263, 0x])",
        "0x216Da2c06A8c029F3d77741C3d015b22e35F62DF"
      ],
      "transaction": {
        "from": "0xb3999b2d30dd8c9faece5a8a503fae42b8b1b614",
        "to": "0x3af134307d5ee90faa2ba9cdba14ba66414cf1a7",
        "gas": "0x129da",
        "value": "0x0",
        "input": "0xcce0b265000000000000000000000000000000000000000000000000000000000000006000000000000000000000000000000000000000000000000000000000000000a0000000000000000000000000216da2c06a8c029f3d77741c3d015b22e35f62df000000000000000000000000000000000000000000000000000000000000000b636f736d6f736875622d3000000000000000000000000000000000000000000000000000000000000000000000000000000000000000000000000000000000400000000000000000000000000000000000000000000000000000000000000080000000000000000000000000000000000000000000000000000000000000000c30382d7761736d2d313336390000000000000000000000000000000000000000000000000000000000000000000000000000000000000000000000000000000200000000000000000000000000000000000000000000000000000000000000400000000000000000000000000000000000000000000000000000000000000080000000000000000000000000000000000000000000000000000000000000000369626300000000000000000000000000000000000000000000000000000000000000000000000000000000000000000000000000000000000000000000000000",
        "nonce": "0x1",
        "chainId": "0x1"
      },
      "additionalContracts": [],
      "isFixedGasLimit": false
    }
  ],
  "receipts": [],
  "libraries": [],
  "pending": [],
  "returns": {},
  "timestamp": 1750150064,
  "chain": 1,
  "commit": "3469c51"
}