{
  "transactions": [
    {
      "hash": null,
      "transactionType": "CALL",
      "contractName": null,
      "contractAddress": "0x3af134307d5ee90faa2ba9cdba14ba66414cf1a7",
      "function": "migrateClient(string,(string,bytes[]),address)",
      "arguments": [
        "ledger-mainnet-1",
        "(08-wasm-0, [0x696263, 0x])",
        "0x279ad6E89DECDf0eBD20050FdD082EE1d20d3E0f"
      ],
      "transaction": {
        "from": "0xb3999b2d30dd8c9faece5a8a503fae42b8b1b614",
        "to": "0x3af134307d5ee90faa2ba9cdba14ba66414cf1a7",
        "gas": "0x129fa",
        "value": "0x0",
        "input": "0xcce0b265000000000000000000000000000000000000000000000000000000000000006000000000000000000000000000000000000000000000000000000000000000a0000000000000000000000000279ad6e89decdf0ebd20050fdd082ee1d20d3e0f00000000000000000000000000000000000000000000000000000000000000106c65646765722d6d61696e6e65742d310000000000000000000000000000000000000000000000000000000000000000000000000000000000000000000000400000000000000000000000000000000000000000000000000000000000000080000000000000000000000000000000000000000000000000000000000000000930382d7761736d2d300000000000000000000000000000000000000000000000000000000000000000000000000000000000000000000000000000000000000200000000000000000000000000000000000000000000000000000000000000400000000000000000000000000000000000000000000000000000000000000080000000000000000000000000000000000000000000000000000000000000000369626300000000000000000000000000000000000000000000000000000000000000000000000000000000000000000000000000000000000000000000000000",
        "nonce": "0x1",
        "chainId": "0x1"
      },
      "additionalContracts": [],
      "isFixedGasLimit": false
    }
  ],
  "receipts": [],
  "libraries": [],
  "pending": [],
  "returns": {},
  "timestamp": 1750375072,
  "chain": 1,
  "commit": "3361013"
}