{
  "transactions": [
    {
      "hash": "0xd7c2e8ad0dc02fe69d3ddd2d19b1e35c20cb363904bd393a130391a318577f4e",
      "transactionType": "CALL",
      "contractName": null,
      "contractAddress": "0x3fcbb8b5d85fb5f77603e11536b5e90fee37e6c0",
      "function": "migrateClient(string,string)",
      "arguments": [
        "hub-testnet-0",
        "client-3"
      ],
      "transaction": {
        "from": "0x64259f722a0868ccf58a935c61a292cea9df035a",
        "to": "0x3fcbb8b5d85fb5f77603e11536b5e90fee37e6c0",
        "gas": "0x15c52",
        "value": "0x0",
        "input": "0x9ea7ff9900000000000000000000000000000000000000000000000000000000000000400000000000000000000000000000000000000000000000000000000000000080000000000000000000000000000000000000000000000000000000000000000d6875622d746573746e65742d30000000000000000000000000000000000000000000000000000000000000000000000000000000000000000000000000000008636c69656e742d33000000000000000000000000000000000000000000000000",
        "nonce": "0x3d",
        "chainId": "0xaa36a7"
      },
      "additionalContracts": [],
      "isFixedGasLimit": false
    }
  ],
  "receipts": [
    {
      "status": "0x1",
      "cumulativeGasUsed": "0xcc0076",
      "logs": [
        {
          "address": "0x3fcbb8b5d85fb5f77603e11536b5e90fee37e6c0",
          "topics": [
            "0x463efa06bb86a991e2699ec804ab65d99abe14cc1466de129e9da101cd39e95c"
          ],
          "data": "0x00000000000000000000000000000000000000000000000000000000000000400000000000000000000000000000000000000000000000000000000000000080000000000000000000000000000000000000000000000000000000000000000d6875622d746573746e65742d30000000000000000000000000000000000000000000000000000000000000000000000000000000000000000000000000000008636c69656e742d33000000000000000000000000000000000000000000000000",
          "blockHash": "0xbe6c9cc8e0177efd94e04fdb2adcd0222b669aa7b2bb82dfdcc5a888838c862a",
          "blockNumber": "0x7aa0db",
          "blockTimestamp": "0x67ed7c94",
          "transactionHash": "0xd7c2e8ad0dc02fe69d3ddd2d19b1e35c20cb363904bd393a130391a318577f4e",
          "transactionIndex": "0x87",
          "logIndex": "0x9f",
          "removed": false
        }
      ],
      "logsBloom": "0x00000000000000000000000000000000000000000080000000000000000000000000000000000000000000000000000000000000000000000000000000000000000010000000000000000000000000000000000000000000000000000000000000000100000000000000000000000000000000000000000000000000000000000000020000000000000000000000000000000000000000000000000000000000000000000000000000000000000000000000000000000000000000000000000000000000000000000000000000000000000000000000000000000000000000004000000000000000100000000000000000000000000000000000000000000000",
      "type": "0x2",
      "transactionHash": "0xd7c2e8ad0dc02fe69d3ddd2d19b1e35c20cb363904bd393a130391a318577f4e",
      "transactionIndex": "0x87",
      "blockHash": "0xbe6c9cc8e0177efd94e04fdb2adcd0222b669aa7b2bb82dfdcc5a888838c862a",
      "blockNumber": "0x7aa0db",
      "gasUsed": "0xfc2f",
      "effectiveGasPrice": "0xfe7f3",
      "from": "0x64259f722a0868ccf58a935c61a292cea9df035a",
      "to": "0x3fcbb8b5d85fb5f77603e11536b5e90fee37e6c0",
      "contractAddress": null
    }
  ],
  "libraries": [],
  "pending": [],
  "returns": {},
  "timestamp": 1743617172,
  "chain": 11155111,
  "commit": "bd3b7ef"
}