{
  "transactions": [
    {
      "hash": "0x1fdfd8b1e579814cdcf5f3df71bd93c3e8b76f35ebddc44919b01c2bc202439e",
      "transactionType": "CALL",
      "contractName": null,
      "contractAddress": "0x3fcbb8b5d85fb5f77603e11536b5e90fee37e6c0",
      "function": "migrateClient(string,string)",
      "arguments": [
        "hub-testnet-0",
        "client-12"
      ],
      "transaction": {
        "from": "0x64259f722a0868ccf58a935c61a292cea9df035a",
        "to": "0x3fcbb8b5d85fb5f77603e11536b5e90fee37e6c0",
        "gas": "0x15c45",
        "value": "0x0",
        "input": "0x9ea7ff9900000000000000000000000000000000000000000000000000000000000000400000000000000000000000000000000000000000000000000000000000000080000000000000000000000000000000000000000000000000000000000000000d6875622d746573746e65742d30000000000000000000000000000000000000000000000000000000000000000000000000000000000000000000000000000009636c69656e742d31320000000000000000000000000000000000000000000000",
        "nonce": "0x6b",
        "chainId": "0xaa36a7"
      },
      "additionalContracts": [],
      "isFixedGasLimit": false
    }
  ],
  "receipts": [
    {
      "status": "0x1",
      "cumulativeGasUsed": "0xd014c9",
      "logs": [
        {
          "address": "0x3fcbb8b5d85fb5f77603e11536b5e90fee37e6c0",
          "topics": [
            "0x463efa06bb86a991e2699ec804ab65d99abe14cc1466de129e9da101cd39e95c"
          ],
          "data": "0x00000000000000000000000000000000000000000000000000000000000000400000000000000000000000000000000000000000000000000000000000000080000000000000000000000000000000000000000000000000000000000000000d6875622d746573746e65742d30000000000000000000000000000000000000000000000000000000000000000000000000000000000000000000000000000009636c69656e742d31320000000000000000000000000000000000000000000000",
          "blockHash": "0xd8e2ceabcd9fb242b56fed52e941c6459276acd9e1ddcaf39a2acbd66753142c",
          "blockNumber": "0x7ed418",
          "blockTimestamp": "0x682210b0",
          "transactionHash": "0x1fdfd8b1e579814cdcf5f3df71bd93c3e8b76f35ebddc44919b01c2bc202439e",
          "transactionIndex": "0x82",
          "logIndex": "0xca",
          "removed": false
        }
      ],
      "logsBloom": "0x00000000000000000000000000000000000000000080000000000000000000000000000000000000000000000000000000000000000000000000000000000000000010000000000000000000000000000000000000000000000000000000000000000100000000000000000000000000000000000000000000000000000000000000020000000000000000000000000000000000000000000000000000000000000000000000000000000000000000000000000000000000000000000000000000000000000000000000000000000000000000000000000000000000000000004000000000000000100000000000000000000000000000000000000000000000",
      "type": "0x2",
      "transactionHash": "0x1fdfd8b1e579814cdcf5f3df71bd93c3e8b76f35ebddc44919b01c2bc202439e",
      "transactionIndex": "0x82",
      "blockHash": "0xd8e2ceabcd9fb242b56fed52e941c6459276acd9e1ddcaf39a2acbd66753142c",
      "blockNumber": "0x7ed418",
      "gasUsed": "0xfc25",
      "effectiveGasPrice": "0x1ab675",
      "from": "0x64259f722a0868ccf58a935c61a292cea9df035a",
      "to": "0x3fcbb8b5d85fb5f77603e11536b5e90fee37e6c0",
      "contractAddress": null
    }
  ],
  "libraries": [],
  "pending": [],
  "returns": {},
  "timestamp": 1747062960,
  "chain": 11155111,
  "commit": "677d817"
}