{
  "transactions": [
    {
      "hash": "0xc6de9befb61878cfe521d2f3c9c2eb88d19421a99510d2518c1fc37241505e9f",
      "transactionType": "CALL",
      "contractName": null,
      "contractAddress": "0x3fcbb8b5d85fb5f77603e11536b5e90fee37e6c0",
      "function": "migrateClient(string,string)",
      "arguments": [
        "hub-devnet-7",
        "client-10"
      ],
      "transaction": {
        "from": "0x64259f722a0868ccf58a935c61a292cea9df035a",
        "to": "0x3fcbb8b5d85fb5f77603e11536b5e90fee37e6c0",
        "gas": "0x15c52",
        "value": "0x0",
        "input": "0x9ea7ff9900000000000000000000000000000000000000000000000000000000000000400000000000000000000000000000000000000000000000000000000000000080000000000000000000000000000000000000000000000000000000000000000c6875622d6465766e65742d3700000000000000000000000000000000000000000000000000000000000000000000000000000000000000000000000000000009636c69656e742d31300000000000000000000000000000000000000000000000",
        "nonce": "0x5a",
        "chainId": "0xaa36a7"
      },
      "additionalContracts": [],
      "isFixedGasLimit": false
    }
  ],
  "receipts": [
    {
      "status": "0x1",
      "cumulativeGasUsed": "0x7734f3",
      "logs": [
        {
          "address": "0x3fcbb8b5d85fb5f77603e11536b5e90fee37e6c0",
          "topics": [
            "0x463efa06bb86a991e2699ec804ab65d99abe14cc1466de129e9da101cd39e95c"
          ],
          "data": "0x00000000000000000000000000000000000000000000000000000000000000400000000000000000000000000000000000000000000000000000000000000080000000000000000000000000000000000000000000000000000000000000000c6875622d6465766e65742d3700000000000000000000000000000000000000000000000000000000000000000000000000000000000000000000000000000009636c69656e742d31300000000000000000000000000000000000000000000000",
          "blockHash": "0x9d2fcc91d3714afc084f022196da0a783e680b9a7234d8fdd42e7e02de6f2ae3",
          "blockNumber": "0x7ba9f4",
          "transactionHash": "0xc6de9befb61878cfe521d2f3c9c2eb88d19421a99510d2518c1fc37241505e9f",
          "transactionIndex": "0x4d",
          "logIndex": "0x74",
          "removed": false
        }
      ],
      "logsBloom": "0x00000000000000000000000000000000000000000080000000000000000000000000000000000000000000000000000000000000000000000000000000000000000010000000000000000000000000000000000000000000000000000000000000000100000000000000000000000000000000000000000000000000000000000000020000000000000000000000000000000000000000000000000000000000000000000000000000000000000000000000000000000000000000000000000000000000000000000000000000000000000000000000000000000000000000004000000000000000100000000000000000000000000000000000000000000000",
      "type": "0x2",
      "transactionHash": "0xc6de9befb61878cfe521d2f3c9c2eb88d19421a99510d2518c1fc37241505e9f",
      "transactionIndex": "0x4d",
      "blockHash": "0x9d2fcc91d3714afc084f022196da0a783e680b9a7234d8fdd42e7e02de6f2ae3",
      "blockNumber": "0x7ba9f4",
      "gasUsed": "0xfc2f",
      "effectiveGasPrice": "0x11eb32b",
      "from": "0x64259f722a0868ccf58a935c61a292cea9df035a",
      "to": "0x3fcbb8b5d85fb5f77603e11536b5e90fee37e6c0",
      "contractAddress": null
    }
  ],
  "libraries": [],
  "pending": [],
  "returns": {},
  "timestamp": 1744468464,
  "chain": 11155111,
  "commit": "3d87dba"
}