{
  "transactions": [
    {
      "hash": "0x1c6525a0dd8e4896a36556dcc5b739ad3833fce9534baebbea655a6ba5564c67",
      "transactionType": "CALL",
      "contractName": null,
      "contractAddress": "0x3fcbb8b5d85fb5f77603e11536b5e90fee37e6c0",
      "function": "migrateClient(string,string)",
      "arguments": [
        "hub-testnet-0",
        "client-5"
      ],
      "transaction": {
        "from": "0x64259f722a0868ccf58a935c61a292cea9df035a",
        "to": "0x3fcbb8b5d85fb5f77603e11536b5e90fee37e6c0",
        "gas": "0x15c52",
        "value": "0x0",
        "input": "0x9ea7ff9900000000000000000000000000000000000000000000000000000000000000400000000000000000000000000000000000000000000000000000000000000080000000000000000000000000000000000000000000000000000000000000000d6875622d746573746e65742d30000000000000000000000000000000000000000000000000000000000000000000000000000000000000000000000000000008636c69656e742d35000000000000000000000000000000000000000000000000",
        "nonce": "0x4d",
        "chainId": "0xaa36a7"
      },
      "additionalContracts": [],
      "isFixedGasLimit": false
    }
  ],
  "receipts": [
    {
      "status": "0x1",
      "cumulativeGasUsed": "0xbc7a88",
      "logs": [
        {
          "address": "0x3fcbb8b5d85fb5f77603e11536b5e90fee37e6c0",
          "topics": [
            "0x463efa06bb86a991e2699ec804ab65d99abe14cc1466de129e9da101cd39e95c"
          ],
          "data": "0x00000000000000000000000000000000000000000000000000000000000000400000000000000000000000000000000000000000000000000000000000000080000000000000000000000000000000000000000000000000000000000000000d6875622d746573746e65742d30000000000000000000000000000000000000000000000000000000000000000000000000000000000000000000000000000008636c69656e742d35000000000000000000000000000000000000000000000000",
          "blockHash": "0x1aeb1353a047707a5030dc7d5340afa1735a5e929f3b32140ca56a4ec84f2643",
          "blockNumber": "0x7b65f5",
          "transactionHash": "0x1c6525a0dd8e4896a36556dcc5b739ad3833fce9534baebbea655a6ba5564c67",
          "transactionIndex": "0x49",
          "logIndex": "0xa9",
          "removed": false
        }
      ],
      "logsBloom": "0x00000000000000000000000000000000000000000080000000000000000000000000000000000000000000000000000000000000000000000000000000000000000010000000000000000000000000000000000000000000000000000000000000000100000000000000000000000000000000000000000000000000000000000000020000000000000000000000000000000000000000000000000000000000000000000000000000000000000000000000000000000000000000000000000000000000000000000000000000000000000000000000000000000000000000004000000000000000100000000000000000000000000000000000000000000000",
      "type": "0x2",
      "transactionHash": "0x1c6525a0dd8e4896a36556dcc5b739ad3833fce9534baebbea655a6ba5564c67",
      "transactionIndex": "0x49",
      "blockHash": "0x1aeb1353a047707a5030dc7d5340afa1735a5e929f3b32140ca56a4ec84f2643",
      "blockNumber": "0x7b65f5",
      "gasUsed": "0xfc2f",
      "effectiveGasPrice": "0xf424b",
      "from": "0x64259f722a0868ccf58a935c61a292cea9df035a",
      "to": "0x3fcbb8b5d85fb5f77603e11536b5e90fee37e6c0",
      "contractAddress": null
    }
  ],
  "libraries": [],
  "pending": [],
  "returns": {},
  "timestamp": 1744240346,
  "chain": 11155111,
  "commit": "16acb31"
}