{
  "transactions": [
    {
      "hash": "0x654b9093de2217641c579945bea1f22a0e77cdc8748c395a9b46f1094fc0d8f2",
      "transactionType": "CALL",
      "contractName": null,
      "contractAddress": "0x3fcbb8b5d85fb5f77603e11536b5e90fee37e6c0",
      "function": "migrateClient(string,string)",
      "arguments": [
        "hub-testnet-1",
        "client-2"
      ],
      "transaction": {
        "from": "0x64259f722a0868ccf58a935c61a292cea9df035a",
        "to": "0x3fcbb8b5d85fb5f77603e11536b5e90fee37e6c0",
        "gas": "0x14d37",
        "value": "0x0",
        "input": "0x9ea7ff9900000000000000000000000000000000000000000000000000000000000000400000000000000000000000000000000000000000000000000000000000000080000000000000000000000000000000000000000000000000000000000000000d6875622d746573746e65742d31000000000000000000000000000000000000000000000000000000000000000000000000000000000000000000000000000008636c69656e742d32000000000000000000000000000000000000000000000000",
        "nonce": "0x38",
        "chainId": "0xaa36a7"
      },
      "additionalContracts": [],
      "isFixedGasLimit": false
    }
  ],
  "receipts": [
    {
      "status": "0x1",
      "cumulativeGasUsed": "0xecf510",
      "logs": [
        {
          "address": "0x3fcbb8b5d85fb5f77603e11536b5e90fee37e6c0",
          "topics": [
            "0x463efa06bb86a991e2699ec804ab65d99abe14cc1466de129e9da101cd39e95c"
          ],
          "data": "0x00000000000000000000000000000000000000000000000000000000000000400000000000000000000000000000000000000000000000000000000000000080000000000000000000000000000000000000000000000000000000000000000d6875622d746573746e65742d31000000000000000000000000000000000000000000000000000000000000000000000000000000000000000000000000000008636c69656e742d32000000000000000000000000000000000000000000000000",
          "blockHash": "0x325c3b5a878f7bc1c45caef039bd9ee3f6ee97964d32769a0e5077e73deb00b5",
          "blockNumber": "0x7a98dd",
          "blockTimestamp": "0x67ed1be0",
          "transactionHash": "0x654b9093de2217641c579945bea1f22a0e77cdc8748c395a9b46f1094fc0d8f2",
          "transactionIndex": "0x7f",
          "logIndex": "0xbd",
          "removed": false
        }
      ],
      "logsBloom": "0x00000000000000000000000000000000000000000080000000000000000000000000000000000000000000000000000000000000000000000000000000000000000010000000000000000000000000000000000000000000000000000000000000000100000000000000000000000000000000000000000000000000000000000000020000000000000000000000000000000000000000000000000000000000000000000000000000000000000000000000000000000000000000000000000000000000000000000000000000000000000000000000000000000000000000004000000000000000100000000000000000000000000000000000000000000000",
      "type": "0x2",
      "transactionHash": "0x654b9093de2217641c579945bea1f22a0e77cdc8748c395a9b46f1094fc0d8f2",
      "transactionIndex": "0x7f",
      "blockHash": "0x325c3b5a878f7bc1c45caef039bd9ee3f6ee97964d32769a0e5077e73deb00b5",
      "blockNumber": "0x7a98dd",
      "gasUsed": "0xf13f",
      "effectiveGasPrice": "0x1462d308",
      "from": "0x64259f722a0868ccf58a935c61a292cea9df035a",
      "to": "0x3fcbb8b5d85fb5f77603e11536b5e90fee37e6c0",
      "contractAddress": null
    }
  ],
  "libraries": [],
  "pending": [],
  "returns": {},
  "timestamp": 1743592418,
  "chain": 11155111,
  "commit": "bd3b7ef"
}