{
  "transactions": [
    {
      "hash": "0x71fcfbc70a71e903b8628589f4c5d5578ebc38108a3fa486c0ac102b74336af2",
      "transactionType": "CALL",
      "contractName": null,
      "contractAddress": "0x3fcbb8b5d85fb5f77603e11536b5e90fee37e6c0",
      "function": "migrateClient(string,string)",
      "arguments": [
        "hub-testnet-1",
        "client-6"
      ],
      "transaction": {
        "from": "0x64259f722a0868ccf58a935c61a292cea9df035a",
        "to": "0x3fcbb8b5d85fb5f77603e11536b5e90fee37e6c0",
        "gas": "0x15c52",
        "value": "0x0",
        "input": "0x9ea7ff9900000000000000000000000000000000000000000000000000000000000000400000000000000000000000000000000000000000000000000000000000000080000000000000000000000000000000000000000000000000000000000000000d6875622d746573746e65742d31000000000000000000000000000000000000000000000000000000000000000000000000000000000000000000000000000008636c69656e742d36000000000000000000000000000000000000000000000000",
        "nonce": "0x4e",
        "chainId": "0xaa36a7"
      },
      "additionalContracts": [],
      "isFixedGasLimit": false
    }
  ],
  "receipts": [
    {
      "status": "0x1",
      "cumulativeGasUsed": "0x720cd9",
      "logs": [
        {
          "address": "0x3fcbb8b5d85fb5f77603e11536b5e90fee37e6c0",
          "topics": [
            "0x463efa06bb86a991e2699ec804ab65d99abe14cc1466de129e9da101cd39e95c"
          ],
          "data": "0x00000000000000000000000000000000000000000000000000000000000000400000000000000000000000000000000000000000000000000000000000000080000000000000000000000000000000000000000000000000000000000000000d6875622d746573746e65742d31000000000000000000000000000000000000000000000000000000000000000000000000000000000000000000000000000008636c69656e742d36000000000000000000000000000000000000000000000000",
          "blockHash": "0xed55a69b21b03ad4479a78c06325713e0ca001e65aa0c82fcb181e2a14bb023e",
          "blockNumber": "0x7b65f7",
          "transactionHash": "0x71fcfbc70a71e903b8628589f4c5d5578ebc38108a3fa486c0ac102b74336af2",
          "transactionIndex": "0x3d",
          "logIndex": "0xb5",
          "removed": false
        }
      ],
      "logsBloom": "0x00000000000000000000000000000000000000000080000000000000000000000000000000000000000000000000000000000000000000000000000000000000000010000000000000000000000000000000000000000000000000000000000000000100000000000000000000000000000000000000000000000000000000000000020000000000000000000000000000000000000000000000000000000000000000000000000000000000000000000000000000000000000000000000000000000000000000000000000000000000000000000000000000000000000000004000000000000000100000000000000000000000000000000000000000000000",
      "type": "0x2",
      "transactionHash": "0x71fcfbc70a71e903b8628589f4c5d5578ebc38108a3fa486c0ac102b74336af2",
      "transactionIndex": "0x3d",
      "blockHash": "0xed55a69b21b03ad4479a78c06325713e0ca001e65aa0c82fcb181e2a14bb023e",
      "blockNumber": "0x7b65f7",
      "gasUsed": "0xfc2f",
      "effectiveGasPrice": "0xf424b",
      "from": "0x64259f722a0868ccf58a935c61a292cea9df035a",
      "to": "0x3fcbb8b5d85fb5f77603e11536b5e90fee37e6c0",
      "contractAddress": null
    }
  ],
  "libraries": [],
  "pending": [],
  "returns": {},
  "timestamp": 1744240371,
  "chain": 11155111,
  "commit": "16acb31"
}