{
  "transactions": [
    {
      "hash": "0x466281ab1383a2598fa89cf8af35a886cd210ae1a20647d550578fabcfdb9752",
      "transactionType": "CALL",
      "contractName": null,
      "contractAddress": "0x3fcbb8b5d85fb5f77603e11536b5e90fee37e6c0",
      "function": "migrateClient(string,string)",
      "arguments": [
        "hub-testnet-1",
        "client-2"
      ],
      "transaction": {
        "from": "0x64259f722a0868ccf58a935c61a292cea9df035a",
        "to": "0x3fcbb8b5d85fb5f77603e11536b5e90fee37e6c0",
        "gas": "0x15c52",
        "value": "0x0",
        "input": "0x9ea7ff9900000000000000000000000000000000000000000000000000000000000000400000000000000000000000000000000000000000000000000000000000000080000000000000000000000000000000000000000000000000000000000000000d6875622d746573746e65742d31000000000000000000000000000000000000000000000000000000000000000000000000000000000000000000000000000008636c69656e742d32000000000000000000000000000000000000000000000000",
        "nonce": "0x37",
        "chainId": "0xaa36a7"
      },
      "additionalContracts": [],
      "isFixedGasLimit": false
    }
  ],
  "receipts": [
    {
      "status": "0x1",
      "cumulativeGasUsed": "0xac0b1a",
      "logs": [
        {
          "address": "0x3fcbb8b5d85fb5f77603e11536b5e90fee37e6c0",
          "topics": [
            "0x463efa06bb86a991e2699ec804ab65d99abe14cc1466de129e9da101cd39e95c"
          ],
          "data": "0x00000000000000000000000000000000000000000000000000000000000000400000000000000000000000000000000000000000000000000000000000000080000000000000000000000000000000000000000000000000000000000000000d6875622d746573746e65742d31000000000000000000000000000000000000000000000000000000000000000000000000000000000000000000000000000008636c69656e742d32000000000000000000000000000000000000000000000000",
          "blockHash": "0xddb3ce4055f92c6eaa2ddfa458f5713797b21fb431ddb64008de5bb8385a814a",
          "blockNumber": "0x7a6cd9",
          "transactionHash": "0x466281ab1383a2598fa89cf8af35a886cd210ae1a20647d550578fabcfdb9752",
          "transactionIndex": "0x48",
          "logIndex": "0x74",
          "removed": false
        }
      ],
      "logsBloom": "0x00000000000000000000000000000000000000000080000000000000000000000000000000000000000000000000000000000000000000000000000000000000000010000000000000000000000000000000000000000000000000000000000000000100000000000000000000000000000000000000000000000000000000000000020000000000000000000000000000000000000000000000000000000000000000000000000000000000000000000000000000000000000000000000000000000000000000000000000000000000000000000000000000000000000000004000000000000000100000000000000000000000000000000000000000000000",
      "type": "0x2",
      "transactionHash": "0x466281ab1383a2598fa89cf8af35a886cd210ae1a20647d550578fabcfdb9752",
      "transactionIndex": "0x48",
      "blockHash": "0xddb3ce4055f92c6eaa2ddfa458f5713797b21fb431ddb64008de5bb8385a814a",
      "blockNumber": "0x7a6cd9",
      "gasUsed": "0xfc2f",
      "effectiveGasPrice": "0x18e1db",
      "from": "0x64259f722a0868ccf58a935c61a292cea9df035a",
      "to": "0x3fcbb8b5d85fb5f77603e11536b5e90fee37e6c0",
      "contractAddress": null
    }
  ],
  "libraries": [],
  "pending": [],
  "returns": {},
  "timestamp": 1743456157,
  "chain": 11155111,
  "commit": "bd3b7ef"
}