{
  "transactions": [
    {
      "hash": "0x5794336ca843d41fd1ba5c363952d294a438fc66b5055ed9ec5a08bba206bcfe",
      "transactionType": "CALL",
      "contractName": null,
      "contractAddress": "0x3fcbb8b5d85fb5f77603e11536b5e90fee37e6c0",
      "function": "migrateClient(string,string)",
      "arguments": [
        "ledger-testnet-1",
        "client-1"
      ],
      "transaction": {
        "from": "0x64259f722a0868ccf58a935c61a292cea9df035a",
        "to": "0x3fcbb8b5d85fb5f77603e11536b5e90fee37e6c0",
        "gas": "0x17105",
        "value": "0x0",
        "input": "0x9ea7ff990000000000000000000000000000000000000000000000000000000000000040000000000000000000000000000000000000000000000000000000000000008000000000000000000000000000000000000000000000000000000000000000106c65646765722d746573746e65742d31000000000000000000000000000000000000000000000000000000000000000000000000000000000000000000000008636c69656e742d31000000000000000000000000000000000000000000000000",
        "nonce": "0x34",
        "chainId": "0xaa36a7"
      },
      "additionalContracts": [],
      "isFixedGasLimit": false
    }
  ],
  "receipts": [
    {
      "status": "0x1",
      "cumulativeGasUsed": "0x13d3d96",
      "logs": [
        {
          "address": "0x3fcbb8b5d85fb5f77603e11536b5e90fee37e6c0",
          "topics": [
            "0x463efa06bb86a991e2699ec804ab65d99abe14cc1466de129e9da101cd39e95c"
          ],
          "data": "0x0000000000000000000000000000000000000000000000000000000000000040000000000000000000000000000000000000000000000000000000000000008000000000000000000000000000000000000000000000000000000000000000106c65646765722d746573746e65742d31000000000000000000000000000000000000000000000000000000000000000000000000000000000000000000000008636c69656e742d31000000000000000000000000000000000000000000000000",
          "blockHash": "0x3fe2e339c03833be79903aaf648b86a29593c6eee617bafc92b00fcb7487f59a",
          "blockNumber": "0x7a6626",
          "blockTimestamp": "0x67eab6c0",
          "transactionHash": "0x5794336ca843d41fd1ba5c363952d294a438fc66b5055ed9ec5a08bba206bcfe",
          "transactionIndex": "0x9f",
          "logIndex": "0xf6",
          "removed": false
        }
      ],
      "logsBloom": "0x00000000000000000000000000000000000000000080000000000000000000000000000000000000000000000000000000000000000000000000000000000000000010000000000000000000000000000000000000000000000000000000000000000100000000000000000000000000000000000000000000000000000000000000020000000000000000000000000000000000000000000000000000000000000000000000000000000000000000000000000000000000000000000000000000000000000000000000000000000000000000000000000000000000000000004000000000000000100000000000000000000000000000000000000000000000",
      "type": "0x2",
      "transactionHash": "0x5794336ca843d41fd1ba5c363952d294a438fc66b5055ed9ec5a08bba206bcfe",
      "transactionIndex": "0x9f",
      "blockHash": "0x3fe2e339c03833be79903aaf648b86a29593c6eee617bafc92b00fcb7487f59a",
      "blockNumber": "0x7a6626",
      "gasUsed": "0xfc53",
      "effectiveGasPrice": "0x180346ea9",
      "from": "0x64259f722a0868ccf58a935c61a292cea9df035a",
      "to": "0x3fcbb8b5d85fb5f77603e11536b5e90fee37e6c0",
      "contractAddress": null
    }
  ],
  "libraries": [],
  "pending": [],
  "returns": {},
  "timestamp": 1743435457,
  "chain": 11155111,
  "commit": "bd3b7ef"
}