{
  "transactions": [
    {
      "hash": "0x76b111595e5588e4a92a0570488ca257db3bb85f1c2fe6be7e305f4119166f94",
      "transactionType": "CALL",
      "contractName": null,
      "contractAddress": "0x3fcbb8b5d85fb5f77603e11536b5e90fee37e6c0",
      "function": "migrateClient(string,string)",
      "arguments": [
        "ledger-testnet-1",
        "client-0"
      ],
      "transaction": {
        "from": "0x64259f722a0868ccf58a935c61a292cea9df035a",
        "to": "0x3fcbb8b5d85fb5f77603e11536b5e90fee37e6c0",
        "gas": "0x17105",
        "value": "0x0",
        "input": "0x9ea7ff990000000000000000000000000000000000000000000000000000000000000040000000000000000000000000000000000000000000000000000000000000008000000000000000000000000000000000000000000000000000000000000000106c65646765722d746573746e65742d31000000000000000000000000000000000000000000000000000000000000000000000000000000000000000000000008636c69656e742d30000000000000000000000000000000000000000000000000",
        "nonce": "0x2f",
        "chainId": "0xaa36a7"
      },
      "additionalContracts": [],
      "isFixedGasLimit": false
    }
  ],
  "receipts": [
    {
      "status": "0x1",
      "cumulativeGasUsed": "0x161eb52",
      "logs": [
        {
          "address": "0x3fcbb8b5d85fb5f77603e11536b5e90fee37e6c0",
          "topics": [
            "0x463efa06bb86a991e2699ec804ab65d99abe14cc1466de129e9da101cd39e95c"
          ],
          "data": "0x0000000000000000000000000000000000000000000000000000000000000040000000000000000000000000000000000000000000000000000000000000008000000000000000000000000000000000000000000000000000000000000000106c65646765722d746573746e65742d31000000000000000000000000000000000000000000000000000000000000000000000000000000000000000000000008636c69656e742d30000000000000000000000000000000000000000000000000",
          "blockHash": "0x66de3d2be0b023e1cf90a630f7199acd1d3e0378f35b3707849a63f1b4a6c56c",
          "blockNumber": "0x79e46b",
          "blockTimestamp": "0x67e47ee0",
          "transactionHash": "0x76b111595e5588e4a92a0570488ca257db3bb85f1c2fe6be7e305f4119166f94",
          "transactionIndex": "0x8f",
          "logIndex": "0x1a3",
          "removed": false
        }
      ],
      "logsBloom": "0x00000000000000000000000000000000000000000080000000000000000000000000000000000000000000000000000000000000000000000000000000000000000010000000000000000000000000000000000000000000000000000000000000000100000000000000000000000000000000000000000000000000000000000000020000000000000000000000000000000000000000000000000000000000000000000000000000000000000000000000000000000000000000000000000000000000000000000000000000000000000000000000000000000000000000004000000000000000100000000000000000000000000000000000000000000000",
      "type": "0x2",
      "transactionHash": "0x76b111595e5588e4a92a0570488ca257db3bb85f1c2fe6be7e305f4119166f94",
      "transactionIndex": "0x8f",
      "blockHash": "0x66de3d2be0b023e1cf90a630f7199acd1d3e0378f35b3707849a63f1b4a6c56c",
      "blockNumber": "0x79e46b",
      "gasUsed": "0xfc53",
      "effectiveGasPrice": "0x43c99c6fe",
      "from": "0x64259f722a0868ccf58a935c61a292cea9df035a",
      "to": "0x3fcbb8b5d85fb5f77603e11536b5e90fee37e6c0",
      "contractAddress": null
    }
  ],
  "libraries": [],
  "pending": [],
  "returns": {},
  "timestamp": 1743027937,
  "chain": 11155111,
  "commit": "3f332ab"
}