{
  "transactions": [
    {
      "hash": "0x736a851215675a45009365f45fb1bc0a16ee50d44f986466e87fd8e36f2693cb",
      "transactionType": "CALL",
      "contractName": null,
      "contractAddress": "0x3fcbb8b5d85fb5f77603e11536b5e90fee37e6c0",
      "function": "migrateClient(string,string)",
      "arguments": [
        "ledger-testnet-1",
        "client-8"
      ],
      "transaction": {
        "from": "0x64259f722a0868ccf58a935c61a292cea9df035a",
        "to": "0x3fcbb8b5d85fb5f77603e11536b5e90fee37e6c0",
        "gas": "0x17105",
        "value": "0x0",
        "input": "0x9ea7ff990000000000000000000000000000000000000000000000000000000000000040000000000000000000000000000000000000000000000000000000000000008000000000000000000000000000000000000000000000000000000000000000106c65646765722d746573746e65742d31000000000000000000000000000000000000000000000000000000000000000000000000000000000000000000000008636c69656e742d38000000000000000000000000000000000000000000000000",
        "nonce": "0x54",
        "chainId": "0xaa36a7"
      },
      "additionalContracts": [],
      "isFixedGasLimit": false
    }
  ],
  "receipts": [
    {
      "status": "0x1",
      "cumulativeGasUsed": "0x1cbcdf5",
      "logs": [
        {
          "address": "0x3fcbb8b5d85fb5f77603e11536b5e90fee37e6c0",
          "topics": [
            "0x463efa06bb86a991e2699ec804ab65d99abe14cc1466de129e9da101cd39e95c"
          ],
          "data": "0x0000000000000000000000000000000000000000000000000000000000000040000000000000000000000000000000000000000000000000000000000000008000000000000000000000000000000000000000000000000000000000000000106c65646765722d746573746e65742d31000000000000000000000000000000000000000000000000000000000000000000000000000000000000000000000008636c69656e742d38000000000000000000000000000000000000000000000000",
          "blockHash": "0xd2aa3ce10d048cd3a172faf0ff8fc40826f0ad9da032531dca608f0f1e364b16",
          "blockNumber": "0x7ba93b",
          "transactionHash": "0x736a851215675a45009365f45fb1bc0a16ee50d44f986466e87fd8e36f2693cb",
          "transactionIndex": "0x7b",
          "logIndex": "0x209",
          "removed": false
        }
      ],
      "logsBloom": "0x00000000000000000000000000000000000000000080000000000000000000000000000000000000000000000000000000000000000000000000000000000000000010000000000000000000000000000000000000000000000000000000000000000100000000000000000000000000000000000000000000000000000000000000020000000000000000000000000000000000000000000000000000000000000000000000000000000000000000000000000000000000000000000000000000000000000000000000000000000000000000000000000000000000000000004000000000000000100000000000000000000000000000000000000000000000",
      "type": "0x2",
      "transactionHash": "0x736a851215675a45009365f45fb1bc0a16ee50d44f986466e87fd8e36f2693cb",
      "transactionIndex": "0x7b",
      "blockHash": "0xd2aa3ce10d048cd3a172faf0ff8fc40826f0ad9da032531dca608f0f1e364b16",
      "blockNumber": "0x7ba93b",
      "gasUsed": "0xfc53",
      "effectiveGasPrice": "0x21ea8f",
      "from": "0x64259f722a0868ccf58a935c61a292cea9df035a",
      "to": "0x3fcbb8b5d85fb5f77603e11536b5e90fee37e6c0",
      "contractAddress": null
    }
  ],
  "libraries": [],
  "pending": [],
  "returns": {},
  "timestamp": 1744466078,
  "chain": 11155111,
  "commit": "3d87dba"
}