{
  "transactions": [
    {
      "hash": "0x6f86548a629d1101622be187fdf7ba635fa5eea86792040a13e140ddfc63e316",
      "transactionType": "CALL",
      "contractName": null,
      "contractAddress": "0x3fcbb8b5d85fb5f77603e11536b5e90fee37e6c0",
      "function": "migrateClient(string,string)",
      "arguments": [
        "ledger-testnet-2",
        "client-9"
      ],
      "transaction": {
        "from": "0x64259f722a0868ccf58a935c61a292cea9df035a",
        "to": "0x3fcbb8b5d85fb5f77603e11536b5e90fee37e6c0",
        "gas": "0x17105",
        "value": "0x0",
        "input": "0x9ea7ff990000000000000000000000000000000000000000000000000000000000000040000000000000000000000000000000000000000000000000000000000000008000000000000000000000000000000000000000000000000000000000000000106c65646765722d746573746e65742d32000000000000000000000000000000000000000000000000000000000000000000000000000000000000000000000008636c69656e742d39000000000000000000000000000000000000000000000000",
        "nonce": "0x57",
        "chainId": "0xaa36a7"
      },
      "additionalContracts": [],
      "isFixedGasLimit": false
    }
  ],
  "receipts": [
    {
      "status": "0x1",
      "cumulativeGasUsed": "0x99aedc",
      "logs": [
        {
          "address": "0x3fcbb8b5d85fb5f77603e11536b5e90fee37e6c0",
          "topics": [
            "0x463efa06bb86a991e2699ec804ab65d99abe14cc1466de129e9da101cd39e95c"
          ],
          "data": "0x0000000000000000000000000000000000000000000000000000000000000040000000000000000000000000000000000000000000000000000000000000008000000000000000000000000000000000000000000000000000000000000000106c65646765722d746573746e65742d32000000000000000000000000000000000000000000000000000000000000000000000000000000000000000000000008636c69656e742d39000000000000000000000000000000000000000000000000",
          "blockHash": "0xfd7aa519e17c409db47814e32b2e45368de5731b971400aa2409f89a3506857b",
          "blockNumber": "0x7ba9d3",
          "transactionHash": "0x6f86548a629d1101622be187fdf7ba635fa5eea86792040a13e140ddfc63e316",
          "transactionIndex": "0x4e",
          "logIndex": "0x63",
          "removed": false
        }
      ],
      "logsBloom": "0x00000000000000000000000000000000000000000080000000000000000000000000000000000000000000000000000000000000000000000000000000000000000010000000000000000000000000000000000000000000000000000000000000000100000000000000000000000000000000000000000000000000000000000000020000000000000000000000000000000000000000000000000000000000000000000000000000000000000000000000000000000000000000000000000000000000000000000000000000000000000000000000000000000000000000004000000000000000100000000000000000000000000000000000000000000000",
      "type": "0x2",
      "transactionHash": "0x6f86548a629d1101622be187fdf7ba635fa5eea86792040a13e140ddfc63e316",
      "transactionIndex": "0x4e",
      "blockHash": "0xfd7aa519e17c409db47814e32b2e45368de5731b971400aa2409f89a3506857b",
      "blockNumber": "0x7ba9d3",
      "gasUsed": "0xfc53",
      "effectiveGasPrice": "0x1fabdcd",
      "from": "0x64259f722a0868ccf58a935c61a292cea9df035a",
      "to": "0x3fcbb8b5d85fb5f77603e11536b5e90fee37e6c0",
      "contractAddress": null
    }
  ],
  "libraries": [],
  "pending": [],
  "returns": {},
  "timestamp": 1744468056,
  "chain": 11155111,
  "commit": "3d87dba"
}