{
  "transactions": [
    {
      "hash": "0xd69846129c1625a5b27b01f1660c8a3255ade9551045fafbcec3baa320cfc217",
      "transactionType": "CALL",
      "contractName": null,
      "contractAddress": "0x3fcbb8b5d85fb5f77603e11536b5e90fee37e6c0",
      "function": "migrateClient(string,string)",
      "arguments": [
        "ledger-testnet-1",
        "client-4"
      ],
      "transaction": {
        "from": "0x64259f722a0868ccf58a935c61a292cea9df035a",
        "to": "0x3fcbb8b5d85fb5f77603e11536b5e90fee37e6c0",
        "gas": "0x17105",
        "value": "0x0",
        "input": "0x9ea7ff990000000000000000000000000000000000000000000000000000000000000040000000000000000000000000000000000000000000000000000000000000008000000000000000000000000000000000000000000000000000000000000000106c65646765722d746573746e65742d31000000000000000000000000000000000000000000000000000000000000000000000000000000000000000000000008636c69656e742d34000000000000000000000000000000000000000000000000",
        "nonce": "0x40",
        "chainId": "0xaa36a7"
      },
      "additionalContracts": [],
      "isFixedGasLimit": false
    }
  ],
  "receipts": [
    {
      "status": "0x1",
      "cumulativeGasUsed": "0x1df9cee",
      "logs": [
        {
          "address": "0x3fcbb8b5d85fb5f77603e11536b5e90fee37e6c0",
          "topics": [
            "0x463efa06bb86a991e2699ec804ab65d99abe14cc1466de129e9da101cd39e95c"
          ],
          "data": "0x0000000000000000000000000000000000000000000000000000000000000040000000000000000000000000000000000000000000000000000000000000008000000000000000000000000000000000000000000000000000000000000000106c65646765722d746573746e65742d31000000000000000000000000000000000000000000000000000000000000000000000000000000000000000000000008636c69656e742d34000000000000000000000000000000000000000000000000",
          "blockHash": "0x791871cae458c9a667051ed2fe039de31d4bf97a3686c8ab0a04752e60cb4596",
          "blockNumber": "0x7aa0ef",
          "blockTimestamp": "0x67ed7d9c",
          "transactionHash": "0xd69846129c1625a5b27b01f1660c8a3255ade9551045fafbcec3baa320cfc217",
          "transactionIndex": "0x66",
          "logIndex": "0x110",
          "removed": false
        }
      ],
      "logsBloom": "0x00000000000000000000000000000000000000000080000000000000000000000000000000000000000000000000000000000000000000000000000000000000000010000000000000000000000000000000000000000000000000000000000000000100000000000000000000000000000000000000000000000000000000000000020000000000000000000000000000000000000000000000000000000000000000000000000000000000000000000000000000000000000000000000000000000000000000000000000000000000000000000000000000000000000000004000000000000000100000000000000000000000000000000000000000000000",
      "type": "0x2",
      "transactionHash": "0xd69846129c1625a5b27b01f1660c8a3255ade9551045fafbcec3baa320cfc217",
      "transactionIndex": "0x66",
      "blockHash": "0x791871cae458c9a667051ed2fe039de31d4bf97a3686c8ab0a04752e60cb4596",
      "blockNumber": "0x7aa0ef",
      "gasUsed": "0xfc53",
      "effectiveGasPrice": "0x11af7c",
      "from": "0x64259f722a0868ccf58a935c61a292cea9df035a",
      "to": "0x3fcbb8b5d85fb5f77603e11536b5e90fee37e6c0",
      "contractAddress": null
    }
  ],
  "libraries": [],
  "pending": [],
  "returns": {},
  "timestamp": 1743617437,
  "chain": 11155111,
  "commit": "bd3b7ef"
}