{
  "transactions": [
    {
      "hash": "0x37b22884776f14a81b0b3ac2add79bff3a9a3cc0a7aa50535ad8fd7cd02a133a",
      "transactionType": "CALL",
      "contractName": null,
      "contractAddress": "0x3a4e076d1c5ebfc813993c497bb284598121b515",
      "function": "grantTokenOperatorRole(address)",
      "arguments": [
        "0x8948ca6bB5E2F50A235DB3eFf7c125188c6AD14b"
      ],
      "transaction": {
        "from": "0x64259f722a0868ccf58a935c61a292cea9df035a",
        "to": "0x3a4e076d1c5ebfc813993c497bb284598121b515",
        "gas": "0x16bce",
        "value": "0x0",
        "input": "0x6c0e87e10000000000000000000000008948ca6bb5e2f50a235db3eff7c125188c6ad14b",
        "nonce": "0x72",
        "chainId": "0xaa36a7"
      },
      "additionalContracts": [],
      "isFixedGasLimit": false
    }
  ],
  "receipts": [
    {
      "status": "0x1",
      "cumulativeGasUsed": "0xb12ecc",
      "logs": [
        {
          "address": "0x3a4e076d1c5ebfc813993c497bb284598121b515",
          "topics": [
            "0x2f8788117e7eff1d82e926ec794901d17c78024a50270940304540a733656f0d",
            "0x62150a51582c26f4255242a3c4ca35fb04250e7315069523d650676aed01a56a",
            "0x0000000000000000000000008948ca6bb5e2f50a235db3eff7c125188c6ad14b",
            "0x00000000000000000000000064259f722a0868ccf58a935c61a292cea9df035a"
          ],
          "data": "0x",
          "blockHash": "0x329e005823bd0beefea79d0a0dd34cf830098c6372f835108a08f050d1f77f08",
          "blockNumber": "0x800c22",
          "blockTimestamp": "0x6830dbe8",
          "transactionHash": "0x37b22884776f14a81b0b3ac2add79bff3a9a3cc0a7aa50535ad8fd7cd02a133a",
          "transactionIndex": "0x4a",
          "logIndex": "0x73",
          "removed": false
        }
      ],
      "logsBloom": "0x00000004000010000000000000000000000000000000000000000000000000000000000000000000000000000000000000000000000000000000000200000000000000000000000000010000000000000000000000000000000000000004000040000000000000000000000000000402000000000000000000000000000000000000000040000000000000000000000000000000000000000000000000000000000000000000000000000000000000000000000000000000001001000000000000000000020000000000000000000000000000000000000100000000000000000000000000000000000000000000000000000040000020000000000000000000",
      "type": "0x2",
      "transactionHash": "0x37b22884776f14a81b0b3ac2add79bff3a9a3cc0a7aa50535ad8fd7cd02a133a",
      "transactionIndex": "0x4a",
      "blockHash": "0x329e005823bd0beefea79d0a0dd34cf830098c6372f835108a08f050d1f77f08",
      "blockNumber": "0x800c22",
      "gasUsed": "0xf8c2",
      "effectiveGasPrice": "0xf424c",
      "from": "0x64259f722a0868ccf58a935c61a292cea9df035a",
      "to": "0x3a4e076d1c5ebfc813993c497bb284598121b515",
      "contractAddress": null
    }
  ],
  "libraries": [],
  "pending": [],
  "returns": {},
  "timestamp": 1748032489,
  "chain": 11155111,
  "commit": "2ee290b"
}