{
  "transactions": [
    {
      "hash": "0xad42cce8f91b4ae1686ebf2c1e45dec0c1ede1598139b0b4501b76321c00e093",
      "transactionType": "CALL",
      "contractName": null,
      "contractAddress": "0x3a4e076d1c5ebfc813993c497bb284598121b515",
      "function": "grantTokenOperatorRole(address)",
      "arguments": [
        "0x64259f722A0868CCf58A935C61A292cEA9dF035a"
      ],
      "transaction": {
        "from": "0x64259f722a0868ccf58a935c61a292cea9df035a",
        "to": "0x3a4e076d1c5ebfc813993c497bb284598121b515",
        "gas": "0x16bce",
        "value": "0x0",
        "input": "0x6c0e87e100000000000000000000000064259f722a0868ccf58a935c61a292cea9df035a",
        "nonce": "0x66",
        "chainId": "0xaa36a7"
      },
      "additionalContracts": [],
      "isFixedGasLimit": false
    }
  ],
  "receipts": [
    {
      "status": "0x1",
      "cumulativeGasUsed": "0x975a64",
      "logs": [
        {
          "address": "0x3a4e076d1c5ebfc813993c497bb284598121b515",
          "topics": [
            "0x2f8788117e7eff1d82e926ec794901d17c78024a50270940304540a733656f0d",
            "0x62150a51582c26f4255242a3c4ca35fb04250e7315069523d650676aed01a56a",
            "0x00000000000000000000000064259f722a0868ccf58a935c61a292cea9df035a",
            "0x00000000000000000000000064259f722a0868ccf58a935c61a292cea9df035a"
          ],
          "data": "0x",
          "blockHash": "0xd3d7d1a6e062be0336356fedc267f97e951ad830bfa4dc8d990b1bcaecd0ac1c",
          "blockNumber": "0x7c0d10",
          "blockTimestamp": "0x67ff89a8",
          "transactionHash": "0xad42cce8f91b4ae1686ebf2c1e45dec0c1ede1598139b0b4501b76321c00e093",
          "transactionIndex": "0x6f",
          "logIndex": "0xc0",
          "removed": false
        }
      ],
      "logsBloom": "0x00000004000010000000000000000000000000000000000000000000000000000000000000000000000000000000000000000000000000000000000200000000000000000000000000010000000000000000000000000000000000000000000040000000000000000000000000000402000000000000000000000000000000000000000040000000000000000000000000000000000000000000000000000000000000000000000000000000000000000000000000000000001000000000000000000000000000000000000000000000000000000000000100000000000000000000000000000000000000000000000000000040000020000000000000000000",
      "type": "0x2",
      "transactionHash": "0xad42cce8f91b4ae1686ebf2c1e45dec0c1ede1598139b0b4501b76321c00e093",
      "transactionIndex": "0x6f",
      "blockHash": "0xd3d7d1a6e062be0336356fedc267f97e951ad830bfa4dc8d990b1bcaecd0ac1c",
      "blockNumber": "0x7c0d10",
      "gasUsed": "0xf8c2",
      "effectiveGasPrice": "0x908bd4ce5",
      "from": "0x64259f722a0868ccf58a935c61a292cea9df035a",
      "to": "0x3a4e076d1c5ebfc813993c497bb284598121b515",
      "contractAddress": null
    }
  ],
  "libraries": [],
  "pending": [],
  "returns": {},
  "timestamp": 1744800169,
  "chain": 11155111,
  "commit": "bfa3a45"
}