{
  "transactions": [
    {
      "hash": "0xa4ec0471d6be618dd9b56d30fc02e599f21016f0bc6b0a96dec2a29d24d2c4ca",
      "transactionType": "CALL",
      "contractName": null,
      "contractAddress": "0x3a4e076d1c5ebfc813993c497bb284598121b515",
      "function": "grantTokenOperatorRole(address)",
      "arguments": [
        "0x85CF98533e3275450a0d61D9BC236225947C5882"
      ],
      "transaction": {
        "from": "0x64259f722a0868ccf58a935c61a292cea9df035a",
        "to": "0x3a4e076d1c5ebfc813993c497bb284598121b515",
        "gas": "0x16bce",
        "value": "0x0",
        "input": "0x6c0e87e100000000000000000000000085cf98533e3275450a0d61d9bc236225947c5882",
        "nonce": "0x71",
        "chainId": "0xaa36a7"
      },
      "additionalContracts": [],
      "isFixedGasLimit": false
    }
  ],
  "receipts": [
    {
      "status": "0x1",
      "cumulativeGasUsed": "0xcc564d",
      "logs": [
        {
          "address": "0x3a4e076d1c5ebfc813993c497bb284598121b515",
          "topics": [
            "0x2f8788117e7eff1d82e926ec794901d17c78024a50270940304540a733656f0d",
            "0x62150a51582c26f4255242a3c4ca35fb04250e7315069523d650676aed01a56a",
            "0x00000000000000000000000085cf98533e3275450a0d61d9bc236225947c5882",
            "0x00000000000000000000000064259f722a0868ccf58a935c61a292cea9df035a"
          ],
          "data": "0x",
          "blockHash": "0xd598f7eb3f1a647adc4b5dbfaf802503dd079467f079eed9471c9ce423fae313",
          "blockNumber": "0x800a34",
          "blockTimestamp": "0x6830c4a8",
          "transactionHash": "0xa4ec0471d6be618dd9b56d30fc02e599f21016f0bc6b0a96dec2a29d24d2c4ca",
          "transactionIndex": "0x7c",
          "logIndex": "0xdf",
          "removed": false
        }
      ],
      "logsBloom": "0x00000004000010000000000000000000000000000000000000000000000000000000000000000000000000000000000000000000000000000000000200000000000000000000000000010000000000000000000000000000000000000000000040000000000000000000000000000402000000000000000000000000000000000000000040000000000000000040000000000000000000000000000000000000000000000000000000000000000000000000000000000000001000000000000000000000001000000000000000000000000004000000000100000000000000000000000000000000000000000000000000000040000020000000000000000000",
      "type": "0x2",
      "transactionHash": "0xa4ec0471d6be618dd9b56d30fc02e599f21016f0bc6b0a96dec2a29d24d2c4ca",
      "transactionIndex": "0x7c",
      "blockHash": "0xd598f7eb3f1a647adc4b5dbfaf802503dd079467f079eed9471c9ce423fae313",
      "blockNumber": "0x800a34",
      "gasUsed": "0xf8c2",
      "effectiveGasPrice": "0xf424c",
      "from": "0x64259f722a0868ccf58a935c61a292cea9df035a",
      "to": "0x3a4e076d1c5ebfc813993c497bb284598121b515",
      "contractAddress": null
    }
  ],
  "libraries": [],
  "pending": [],
  "returns": {},
  "timestamp": 1748026537,
  "chain": 11155111,
  "commit": "2ee290b"
}