{
  "transactions": [
    {
      "hash": "0x4d092583bd72f954dcfac5581995ce66e945a99d4cfd759d5e2c04f34f3c4174",
      "transactionType": "CALL",
      "contractName": null,
      "contractAddress": "0x3a4e076d1c5ebfc813993c497bb284598121b515",
      "function": "grantPauserRole(address)",
      "arguments": [
        "0x0000000000000000000000000000000000000001"
      ],
      "transaction": {
        "from": "0x64259f722a0868ccf58a935c61a292cea9df035a",
        "to": "0x3a4e076d1c5ebfc813993c497bb284598121b515",
        "gas": "0x15693",
        "value": "0x0",
        "input": "0x6c11c21c0000000000000000000000000000000000000000000000000000000000000001",
        "nonce": "0x5b",
        "chainId": "0xaa36a7"
      },
      "additionalContracts": [],
      "isFixedGasLimit": false
    }
  ],
  "receipts": [
    {
      "status": "0x1",
      "cumulativeGasUsed": "0xc8ead0",
      "logs": [
        {
          "address": "0x3a4e076d1c5ebfc813993c497bb284598121b515",
          "topics": [
            "0x2f8788117e7eff1d82e926ec794901d17c78024a50270940304540a733656f0d",
            "0x65d7a28e3265b37a6474929f336521b332c1681b933f6cb9f3376673440d862a",
            "0x0000000000000000000000000000000000000000000000000000000000000001",
            "0x00000000000000000000000064259f722a0868ccf58a935c61a292cea9df035a"
          ],
          "data": "0x",
          "blockHash": "0x6ad072f885c2f86a8ef62d952f3ebd2d30c9e28409933fec7391aa0766a7cd79",
          "blockNumber": "0x7bc296",
          "blockTimestamp": "0x67fbbfac",
          "transactionHash": "0x4d092583bd72f954dcfac5581995ce66e945a99d4cfd759d5e2c04f34f3c4174",
          "transactionIndex": "0x76",
          "logIndex": "0x82",
          "removed": false
        }
      ],
      "logsBloom": "0x00000004000000000000000000000000000000000000000000000000000000000000000000000000000000000000000000000000000000000000000200040000000000000000000000000000000000000000000000040000000000000000000040000000000000000000000000000402000000000000000000000000000000000000000040000000000000000000008000000000000000000000000000000000000000000000000000000000000000000000000000000000001000000000000000000000000000000000000000000000000000000000000100002000000040000000000000000000000000000000000000000440000000000000000000000000",
      "type": "0x2",
      "transactionHash": "0x4d092583bd72f954dcfac5581995ce66e945a99d4cfd759d5e2c04f34f3c4174",
      "transactionIndex": "0x76",
      "blockHash": "0x6ad072f885c2f86a8ef62d952f3ebd2d30c9e28409933fec7391aa0766a7cd79",
      "blockNumber": "0x7bc296",
      "gasUsed": "0xf805",
      "effectiveGasPrice": "0x25a879",
      "from": "0x64259f722a0868ccf58a935c61a292cea9df035a",
      "to": "0x3a4e076d1c5ebfc813993c497bb284598121b515",
      "contractAddress": null
    }
  ],
  "libraries": [],
  "pending": [],
  "returns": {},
  "timestamp": 1744551853,
  "chain": 11155111,
  "commit": "8923639"
}