{
  "transactions": [
    {
      "hash": "0xe007acf278c9440fffc6f8252ebb03e872387870aadd8e868984b5adbb3fe60d",
      "transactionType": "CALL",
      "contractName": null,
      "contractAddress": "0xa348cfe719b63151f228e3c30eb424ba5a983012",
      "function": "grantPauserRole(address)",
      "arguments": [
        "0x64ACC525DC35ebca8345fDF6e2A70D012a17740A"
      ],
      "transaction": {
        "from": "0x64259f722a0868ccf58a935c61a292cea9df035a",
        "to": "0xa348cfe719b63151f228e3c30eb424ba5a983012",
        "gas": "0x16c07",
        "value": "0x0",
        "input": "0x6c11c21c00000000000000000000000064acc525dc35ebca8345fdf6e2a70d012a17740a",
        "nonce": "0x33",
        "chainId": "0x1"
      },
      "additionalContracts": [],
      "isFixedGasLimit": false
    }
  ],
  "receipts": [
    {
      "status": "0x1",
      "cumulativeGasUsed": "0x1d4a440",
      "logs": [
        {
          "address": "0xa348cfe719b63151f228e3c30eb424ba5a983012",
          "topics": [
            "0x2f8788117e7eff1d82e926ec794901d17c78024a50270940304540a733656f0d",
            "0x65d7a28e3265b37a6474929f336521b332c1681b933f6cb9f3376673440d862a",
            "0x00000000000000000000000064acc525dc35ebca8345fdf6e2a70d012a17740a",
            "0x00000000000000000000000064259f722a0868ccf58a935c61a292cea9df035a"
          ],
          "data": "0x",
          "blockHash": "0x57d4bf7aa6958032e78e9595890f7b07e1ce66cd8d375d87bfdc8b19b2562092",
          "blockNumber": "0x1533ffc",
          "transactionHash": "0xe007acf278c9440fffc6f8252ebb03e872387870aadd8e868984b5adbb3fe60d",
          "transactionIndex": "0x146",
          "logIndex": "0x2c7",
          "removed": false
        }
      ],
      "logsBloom": "0x0000000400000000000000000000000000000000000000000000000000000000000000000000000000040000000000000000000000000000000000000000000000000000000000000000000000000000000000000000000000000000000000000000000000000000000000000000040000000000000000000000000000000000000000004000000000000000000000a000000000000000000000000000000400000000000000000000000400000000000000000000000000001000000000000000000000000000000000000000000000000000000000000100002000000000000000000000000000000010000000000000000440000000000000000008000000",
      "type": "0x2",
      "transactionHash": "0xe007acf278c9440fffc6f8252ebb03e872387870aadd8e868984b5adbb3fe60d",
      "transactionIndex": "0x146",
      "blockHash": "0x57d4bf7aa6958032e78e9595890f7b07e1ce66cd8d375d87bfdc8b19b2562092",
      "blockNumber": "0x1533ffc",
      "gasUsed": "0xf8e9",
      "effectiveGasPrice": "0xb91877ce3",
      "from": "0x64259f722a0868ccf58a935c61a292cea9df035a",
      "to": "0xa348cfe719b63151f228e3c30eb424ba5a983012",
      "contractAddress": null
    }
  ],
  "libraries": [],
  "pending": [],
  "returns": {},
  "timestamp": 1744222611,
  "chain": 1,
  "commit": "d48e8b5"
}