{
  "transactions": [
    {
      "hash": "0x9aa043ab0fd15883625553c69bf1987ca71affe1f36752aad182b5ca37ceb7e9",
      "transactionType": "CALL",
      "contractName": null,
      "contractAddress": "0xa348cfe719b63151f228e3c30eb424ba5a983012",
      "function": "grantPauserRole(address)",
      "arguments": [
        "0xCb5d44d2324D36FfFef0e594d8893c4Fee908d4d"
      ],
      "transaction": {
        "from": "0x64259f722a0868ccf58a935c61a292cea9df035a",
        "to": "0xa348cfe719b63151f228e3c30eb424ba5a983012",
        "gas": "0x16c07",
        "value": "0x0",
        "input": "0x6c11c21c000000000000000000000000cb5d44d2324d36fffef0e594d8893c4fee908d4d",
        "nonce": "0x32",
        "chainId": "0x1"
      },
      "additionalContracts": [],
      "isFixedGasLimit": false
    }
  ],
  "receipts": [
    {
      "status": "0x1",
      "cumulativeGasUsed": "0xb416d8",
      "logs": [
        {
          "address": "0xa348cfe719b63151f228e3c30eb424ba5a983012",
          "topics": [
            "0x2f8788117e7eff1d82e926ec794901d17c78024a50270940304540a733656f0d",
            "0x65d7a28e3265b37a6474929f336521b332c1681b933f6cb9f3376673440d862a",
            "0x000000000000000000000000cb5d44d2324d36fffef0e594d8893c4fee908d4d",
            "0x00000000000000000000000064259f722a0868ccf58a935c61a292cea9df035a"
          ],
          "data": "0x",
          "blockHash": "0x26e64a5f19c3289b0ff5446a871007a219c93599fb6700a1f8aae3750f24f356",
          "blockNumber": "0x1533ffa",
          "transactionHash": "0x9aa043ab0fd15883625553c69bf1987ca71affe1f36752aad182b5ca37ceb7e9",
          "transactionIndex": "0x6d",
          "logIndex": "0x160",
          "removed": false
        }
      ],
      "logsBloom": "0x0000000400000000000000000000000000000000000000000000000000000000000000000000000000000000000000000000000000000000000000000000000000000000000000000000000000000000000000000000000000000000000000002000000000000000000000000000040000000000000000000000000000000000000000004000000000000000000000a000000000000000000000000000000400000000000000000000000400000000000000000000000000001000000000000080000000000000000000000000000000004000000000000100002000000000000000000000000000000000000000000000000440000000000000000000000000",
      "type": "0x2",
      "transactionHash": "0x9aa043ab0fd15883625553c69bf1987ca71affe1f36752aad182b5ca37ceb7e9",
      "transactionIndex": "0x6d",
      "blockHash": "0x26e64a5f19c3289b0ff5446a871007a219c93599fb6700a1f8aae3750f24f356",
      "blockNumber": "0x1533ffa",
      "gasUsed": "0xf8e9",
      "effectiveGasPrice": "0xce9115749",
      "from": "0x64259f722a0868ccf58a935c61a292cea9df035a",
      "to": "0xa348cfe719b63151f228e3c30eb424ba5a983012",
      "contractAddress": null
    }
  ],
  "libraries": [],
  "pending": [],
  "returns": {},
  "timestamp": 1744222586,
  "chain": 1,
  "commit": "d48e8b5"
}