{
  "transactions": [
    {
      "hash": "0x9d7cea19dbab47d59d129d8e51fba2ab8ef8b44eb7025445e7b5a2c626d8b2a5",
      "transactionType": "CALL",
      "contractName": null,
      "contractAddress": "0xa348cfe719b63151f228e3c30eb424ba5a983012",
      "function": "grantTokenOperatorRole(address)",
      "arguments": [
        "0x4b46ea82D80825CA5640301f47C035942e6D9A46"
      ],
      "transaction": {
        "from": "0x64259f722a0868ccf58a935c61a292cea9df035a",
        "to": "0xa348cfe719b63151f228e3c30eb424ba5a983012",
        "gas": "0x16bce",
        "value": "0x0",
        "input": "0x6c0e87e10000000000000000000000004b46ea82d80825ca5640301f47c035942e6d9a46",
        "nonce": "0x49",
        "chainId": "0x1"
      },
      "additionalContracts": [],
      "isFixedGasLimit": false
    }
  ],
  "receipts": [
    {
      "status": "0x1",
      "cumulativeGasUsed": "0x165789e",
      "logs": [
        {
          "address": "0xa348cfe719b63151f228e3c30eb424ba5a983012",
          "topics": [
            "0x2f8788117e7eff1d82e926ec794901d17c78024a50270940304540a733656f0d",
            "0x62150a51582c26f4255242a3c4ca35fb04250e7315069523d650676aed01a56a",
            "0x0000000000000000000000004b46ea82d80825ca5640301f47c035942e6d9a46",
            "0x00000000000000000000000064259f722a0868ccf58a935c61a292cea9df035a"
          ],
          "data": "0x",
          "blockHash": "0x579110ebf51b00c7948dd061556c83e3e2642d01e4bcc64194b341f45c2bad97",
          "blockNumber": "0x1539500",
          "blockTimestamp": "0x67fab913",
          "transactionHash": "0x9d7cea19dbab47d59d129d8e51fba2ab8ef8b44eb7025445e7b5a2c626d8b2a5",
          "transactionIndex": "0x104",
          "logIndex": "0x26a",
          "removed": false
        }
      ],
      "logsBloom": "0x00000004000010000000000000000000000000000000000000000000000000000000000000000000000000000000000000000000000000000000000000000000000000000000000000010000000000000000000000000000000000000000000000000000000000000000000000000400000000000000000000000000000000000000000040000000000000000000002000000000000000000000000000000400000000000000000040000400000000000000000000000000001000000000000002000000000000000000000000000000000000000000000100000000000000000000000000000000000000000000000000000040000020000000000000008000",
      "type": "0x2",
      "transactionHash": "0x9d7cea19dbab47d59d129d8e51fba2ab8ef8b44eb7025445e7b5a2c626d8b2a5",
      "transactionIndex": "0x104",
      "blockHash": "0x579110ebf51b00c7948dd061556c83e3e2642d01e4bcc64194b341f45c2bad97",
      "blockNumber": "0x1539500",
      "gasUsed": "0xf8c2",
      "effectiveGasPrice": "0x1bb818b7",
      "from": "0x64259f722a0868ccf58a935c61a292cea9df035a",
      "to": "0xa348cfe719b63151f228e3c30eb424ba5a983012",
      "contractAddress": null
    }
  ],
  "libraries": [],
  "pending": [],
  "returns": {},
  "timestamp": 1744484629,
  "chain": 1,
  "commit": "1b3b1ad"
}