{
  "transactions": [
    {
      "hash": "0x109884188741407ac260192792dd399a3df597cd99c27ec5f7fc7e23db4a0368",
      "transactionType": "CALL",
      "contractName": null,
      "contractAddress": "0x3af134307d5ee90faa2ba9cdba14ba66414cf1a7",
      "function": "grantRole(bytes32,address)",
      "arguments": [
        "0x1847ed6e688b00b58f7e764e924810488954afc87ff57a9bd46989d55e220b4a",
        "0x4b46ea82D80825CA5640301f47C035942e6D9A46"
      ],
      "transaction": {
        "from": "0x64259f722a0868ccf58a935c61a292cea9df035a",
        "to": "0x3af134307d5ee90faa2ba9cdba14ba66414cf1a7",
        "gas": "0x14062",
        "value": "0x0",
        "input": "0x2f2ff15d1847ed6e688b00b58f7e764e924810488954afc87ff57a9bd46989d55e220b4a0000000000000000000000004b46ea82d80825ca5640301f47c035942e6d9a46",
        "nonce": "0x4b",
        "chainId": "0x1"
      },
      "additionalContracts": [],
      "isFixedGasLimit": false
    }
  ],
  "receipts": [
    {
      "status": "0x1",
      "cumulativeGasUsed": "0xad2269",
      "logs": [
        {
          "address": "0x3af134307d5ee90faa2ba9cdba14ba66414cf1a7",
          "topics": [
            "0x2f8788117e7eff1d82e926ec794901d17c78024a50270940304540a733656f0d",
            "0x1847ed6e688b00b58f7e764e924810488954afc87ff57a9bd46989d55e220b4a",
            "0x0000000000000000000000004b46ea82d80825ca5640301f47c035942e6d9a46",
            "0x00000000000000000000000064259f722a0868ccf58a935c61a292cea9df035a"
          ],
          "data": "0x",
          "blockHash": "0x26a473379dda9d015c63568201f1461cffac779fc4231f6ffe11b4ad413fbc31",
          "blockNumber": "0x1539543",
          "blockTimestamp": "0x67fabc37",
          "transactionHash": "0x109884188741407ac260192792dd399a3df597cd99c27ec5f7fc7e23db4a0368",
          "transactionIndex": "0x7c",
          "logIndex": "0x123",
          "removed": false
        }
      ],
      "logsBloom": "0x00000004000000000000000000010100000000000000000002000000040000000000000000000000000000000000000000000000000000000000000000000000000200000000000000000000000000000000000000100000000000000000000000000000000000000000000000000400000000000000000000000000000000000000000040000000000000000000000000000000000000000000000000000000000000000000000040000000000000000000000000000000001000000000000002000000000000000000000000000000000000000000000100000000000000000000000000000000000000000000000000000040000000000000000000008000",
      "type": "0x2",
      "transactionHash": "0x109884188741407ac260192792dd399a3df597cd99c27ec5f7fc7e23db4a0368",
      "transactionIndex": "0x7c",
      "blockHash": "0x26a473379dda9d015c63568201f1461cffac779fc4231f6ffe11b4ad413fbc31",
      "blockNumber": "0x1539543",
      "gasUsed": "0xdb11",
      "effectiveGasPrice": "0x19b94ae8",
      "from": "0x64259f722a0868ccf58a935c61a292cea9df035a",
      "to": "0x3af134307d5ee90faa2ba9cdba14ba66414cf1a7",
      "contractAddress": null
    }
  ],
  "libraries": [],
  "pending": [],
  "returns": {},
  "timestamp": 1744485433,
  "chain": 1,
  "commit": "1b3b1ad"
}