{
  "transactions": [
    {
      "hash": "0x0b36ddd0bedad6556b1953ca36cfdae1633382d3731c83544723f8c168e10c88",
      "transactionType": "CALL",
      "contractName": null,
      "contractAddress": "0x3af134307d5ee90faa2ba9cdba14ba66414cf1a7",
      "function": "grantRole(bytes32,address)",
      "arguments": [
        "0x096b77bf22504ea02e56ca151e761dc4056f6deffcbf73f5a30a309469e1f6e6",
        "0x4b46ea82D80825CA5640301f47C035942e6D9A46"
      ],
      "transaction": {
        "from": "0x64259f722a0868ccf58a935c61a292cea9df035a",
        "to": "0x3af134307d5ee90faa2ba9cdba14ba66414cf1a7",
        "gas": "0x12ea5",
        "value": "0x0",
        "input": "0x2f2ff15d096b77bf22504ea02e56ca151e761dc4056f6deffcbf73f5a30a309469e1f6e60000000000000000000000004b46ea82d80825ca5640301f47c035942e6d9a46",
        "nonce": "0x4a",
        "chainId": "0x1"
      },
      "additionalContracts": [],
      "isFixedGasLimit": false
    }
  ],
  "receipts": [
    {
      "status": "0x1",
      "cumulativeGasUsed": "0xde10fc",
      "logs": [
        {
          "address": "0x3af134307d5ee90faa2ba9cdba14ba66414cf1a7",
          "topics": [
            "0x2f8788117e7eff1d82e926ec794901d17c78024a50270940304540a733656f0d",
            "0x096b77bf22504ea02e56ca151e761dc4056f6deffcbf73f5a30a309469e1f6e6",
            "0x0000000000000000000000004b46ea82d80825ca5640301f47c035942e6d9a46",
            "0x00000000000000000000000064259f722a0868ccf58a935c61a292cea9df035a"
          ],
          "data": "0x",
          "blockHash": "0xf59447b838a32ee536a94d8b55c00c2747673037b0556b1ca094d903d953c83d",
          "blockNumber": "0x1539533",
          "blockTimestamp": "0x67fabb77",
          "transactionHash": "0x0b36ddd0bedad6556b1953ca36cfdae1633382d3731c83544723f8c168e10c88",
          "transactionIndex": "0x82",
          "logIndex": "0x19e",
          "removed": false
        }
      ],
      "logsBloom": "0x00000004000000000000000000000100000000000000000002000000000000000000000000000000000000000000000002000000000000000000000000000000000200000000000000000000000000000000000000000000000000000000000000000000000000000000000000000400000000000000000000000000000000000000000040000000000000000000000000000000000000000000000000000000000000000000000040000000000000000000000000000000001000200000000002000000000000000000000000000000000004000000000100000000000000000000000000000000000000000000000000000040000000000000000000008000",
      "type": "0x2",
      "transactionHash": "0x0b36ddd0bedad6556b1953ca36cfdae1633382d3731c83544723f8c168e10c88",
      "transactionIndex": "0x82",
      "blockHash": "0xf59447b838a32ee536a94d8b55c00c2747673037b0556b1ca094d903d953c83d",
      "blockNumber": "0x1539533",
      "gasUsed": "0xdb1d",
      "effectiveGasPrice": "0x1cfea3c0",
      "from": "0x64259f722a0868ccf58a935c61a292cea9df035a",
      "to": "0x3af134307d5ee90faa2ba9cdba14ba66414cf1a7",
      "contractAddress": null
    }
  ],
  "libraries": [],
  "pending": [],
  "returns": {},
  "timestamp": 1744485242,
  "chain": 1,
  "commit": "1b3b1ad"
}