{
  "transactions": [
    {
      "hash": "0x825cac0eb450dc1bbc3c2d8225e3fa9003954b94fee94d60da3e3ac2bebe794d",
      "transactionType": "CALL",
      "contractName": null,
      "contractAddress": "0x3af134307d5ee90faa2ba9cdba14ba66414cf1a7",
      "function": "migrateClient(string,string)",
      "arguments": [
        "hub-testnet-3",
        "client-2"
      ],
      "transaction": {
        "from": "0x64259f722a0868ccf58a935c61a292cea9df035a",
        "to": "0x3af134307d5ee90faa2ba9cdba14ba66414cf1a7",
        "gas": "0x15c52",
        "value": "0x0",
        "input": "0x9ea7ff9900000000000000000000000000000000000000000000000000000000000000400000000000000000000000000000000000000000000000000000000000000080000000000000000000000000000000000000000000000000000000000000000d6875622d746573746e65742d33000000000000000000000000000000000000000000000000000000000000000000000000000000000000000000000000000008636c69656e742d32000000000000000000000000000000000000000000000000",
        "nonce": "0x43",
        "chainId": "0x1"
      },
      "additionalContracts": [],
      "isFixedGasLimit": false
    }
  ],
  "receipts": [
    {
      "status": "0x1",
      "cumulativeGasUsed": "0x121b2cb",
      "logs": [
        {
          "address": "0x3af134307d5ee90faa2ba9cdba14ba66414cf1a7",
          "topics": [
            "0x463efa06bb86a991e2699ec804ab65d99abe14cc1466de129e9da101cd39e95c"
          ],
          "data": "0x00000000000000000000000000000000000000000000000000000000000000400000000000000000000000000000000000000000000000000000000000000080000000000000000000000000000000000000000000000000000000000000000d6875622d746573746e65742d33000000000000000000000000000000000000000000000000000000000000000000000000000000000000000000000000000008636c69656e742d32000000000000000000000000000000000000000000000000",
          "blockHash": "0x60b28ea647d2f4c48771b755428f583758ecd63dafe8b8319ecaa6128ee927e5",
          "blockNumber": "0x1535305",
          "transactionHash": "0x825cac0eb450dc1bbc3c2d8225e3fa9003954b94fee94d60da3e3ac2bebe794d",
          "transactionIndex": "0xd0",
          "logIndex": "0x202",
          "removed": false
        }
      ],
      "logsBloom": "0x00000000000000000000000000000100000000000080000002000000000000000000000000000000000000000000000000000000000000000000000000000000000200000000000000000000000000000000000000000000000000000000000000000100000000000000000000000000000000000000000000000000000000000000000000000000000000000000000000000000000000000000000000000000000000000000000000000000000000000000000000000000000000000000000000000000000000000000000000000000000000000000000000000000000000000000000000000000100000000000000000000000000000000000000000000000",
      "type": "0x2",
      "transactionHash": "0x825cac0eb450dc1bbc3c2d8225e3fa9003954b94fee94d60da3e3ac2bebe794d",
      "transactionIndex": "0xd0",
      "blockHash": "0x60b28ea647d2f4c48771b755428f583758ecd63dafe8b8319ecaa6128ee927e5",
      "blockNumber": "0x1535305",
      "gasUsed": "0xfc2f",
      "effectiveGasPrice": "0x1ea779a1",
      "from": "0x64259f722a0868ccf58a935c61a292cea9df035a",
      "to": "0x3af134307d5ee90faa2ba9cdba14ba66414cf1a7",
      "contractAddress": null
    }
  ],
  "libraries": [],
  "pending": [],
  "returns": {},
  "timestamp": 1744281230,
  "chain": 1,
  "commit": "3d87dba"
}