{
  "transactions": [
    {
      "hash": "0x90117749a6b12fc13a37ab8236436829111bbb7f88620153a90ac3cbda7985b1",
      "transactionType": "CALL",
      "contractName": null,
      "contractAddress": "0x3af134307d5ee90faa2ba9cdba14ba66414cf1a7",
      "function": "migrateClient(string,(string,bytes[]),address)",
      "arguments": [
        "client-4",
        "(08-wasm-301, [0x696263, 0x])",
        "0x4025e4AE88B14D9FD5749E61e5adba98Ba39e1F6"
      ],
      "transaction": {
        "from": "0x64259f722a0868ccf58a935c61a292cea9df035a",
        "to": "0x3af134307d5ee90faa2ba9cdba14ba66414cf1a7",
        "gas": "0x12997",
        "value": "0x0",
        "input": "0xcce0b265000000000000000000000000000000000000000000000000000000000000006000000000000000000000000000000000000000000000000000000000000000a00000000000000000000000004025e4ae88b14d9fd5749e61e5adba98ba39e1f60000000000000000000000000000000000000000000000000000000000000008636c69656e742d3400000000000000000000000000000000000000000000000000000000000000000000000000000000000000000000000000000000000000400000000000000000000000000000000000000000000000000000000000000080000000000000000000000000000000000000000000000000000000000000000b30382d7761736d2d333031000000000000000000000000000000000000000000000000000000000000000000000000000000000000000000000000000000000200000000000000000000000000000000000000000000000000000000000000400000000000000000000000000000000000000000000000000000000000000080000000000000000000000000000000000000000000000000000000000000000369626300000000000000000000000000000000000000000000000000000000000000000000000000000000000000000000000000000000000000000000000000",
        "nonce": "0x69",
        "chainId": "0x1"
      },
      "additionalContracts": [],
      "isFixedGasLimit": false
    }
  ],
  "receipts": [
    {
      "status": "0x1",
      "cumulativeGasUsed": "0xbdc744",
      "logs": [
        {
          "address": "0x3af134307d5ee90faa2ba9cdba14ba66414cf1a7",
          "topics": [
            "0x23c2e29d6ae84e79fa116b8afd6e28ddc1de7f473d3edb407fbd08093c3ed6bf"
          ],
          "data": "0x000000000000000000000000000000000000000000000000000000000000006000000000000000000000000000000000000000000000000000000000000000a00000000000000000000000004025e4ae88b14d9fd5749e61e5adba98ba39e1f60000000000000000000000000000000000000000000000000000000000000008636c69656e742d3400000000000000000000000000000000000000000000000000000000000000000000000000000000000000000000000000000000000000400000000000000000000000000000000000000000000000000000000000000080000000000000000000000000000000000000000000000000000000000000000b30382d7761736d2d333031000000000000000000000000000000000000000000000000000000000000000000000000000000000000000000000000000000000200000000000000000000000000000000000000000000000000000000000000400000000000000000000000000000000000000000000000000000000000000080000000000000000000000000000000000000000000000000000000000000000369626300000000000000000000000000000000000000000000000000000000000000000000000000000000000000000000000000000000000000000000000000",
          "blockHash": "0x4c1bc0fc8676ed2c10b5d2768ad07213ee99d887cec102a1d1c57328eda32719",
          "blockNumber": "0x15b681f",
          "blockTimestamp": "0x685960df",
          "transactionHash": "0x90117749a6b12fc13a37ab8236436829111bbb7f88620153a90ac3cbda7985b1",
          "transactionIndex": "0xbd",
          "logIndex": "0xf6",
          "removed": false
        }
      ],
      "logsBloom": "0x00000000000000000000000000000100000000000000000002000000000000000000000000000000000000000000000000000000000000000000000000000000000200000000000000080000000000000000000000000000000000000000000000000000000000000000000000000000000000000000000000000000000000000000000000000000000000000000000000000000000000000000000000000000000000000000000008000000000000000000000000000000000000000000000000000000000000000000000000000000000000000000000000000000000000000000000000000000000000000000000000000000000020000000000000000000",
      "type": "0x2",
      "transactionHash": "0x90117749a6b12fc13a37ab8236436829111bbb7f88620153a90ac3cbda7985b1",
      "transactionIndex": "0xbd",
      "blockHash": "0x4c1bc0fc8676ed2c10b5d2768ad07213ee99d887cec102a1d1c57328eda32719",
      "blockNumber": "0x15b681f",
      "gasUsed": "0xd774",
      "effectiveGasPrice": "0x90000c3ea",
      "from": "0x64259f722a0868ccf58a935c61a292cea9df035a",
      "to": "0x3af134307d5ee90faa2ba9cdba14ba66414cf1a7",
      "contractAddress": null
    }
  ],
  "libraries": [],
  "pending": [],
  "returns": {},
  "timestamp": 1750687968,
  "chain": 1,
  "commit": "5408aeb"
}