{
  "transactions": [
    {
      "hash": "0x33be1b480bb2fcaff56519afd4dfc349984dae98f43784729d554bb32c705826",
      "transactionType": "CALL",
      "contractName": null,
      "contractAddress": "0x3af134307d5ee90faa2ba9cdba14ba66414cf1a7",
      "function": "migrateClient(string,string)",
      "arguments": [
        "hub-testnet-3",
        "client-3"
      ],
      "transaction": {
        "from": "0x64259f722a0868ccf58a935c61a292cea9df035a",
        "to": "0x3af134307d5ee90faa2ba9cdba14ba66414cf1a7",
        "gas": "0x15c52",
        "value": "0x0",
        "input": "0x9ea7ff9900000000000000000000000000000000000000000000000000000000000000400000000000000000000000000000000000000000000000000000000000000080000000000000000000000000000000000000000000000000000000000000000d6875622d746573746e65742d33000000000000000000000000000000000000000000000000000000000000000000000000000000000000000000000000000008636c69656e742d33000000000000000000000000000000000000000000000000",
        "nonce": "0x46",
        "chainId": "0x1"
      },
      "additionalContracts": [],
      "isFixedGasLimit": false
    }
  ],
  "receipts": [
    {
      "status": "0x1",
      "cumulativeGasUsed": "0x1137845",
      "logs": [
        {
          "address": "0x3af134307d5ee90faa2ba9cdba14ba66414cf1a7",
          "topics": [
            "0x463efa06bb86a991e2699ec804ab65d99abe14cc1466de129e9da101cd39e95c"
          ],
          "data": "0x00000000000000000000000000000000000000000000000000000000000000400000000000000000000000000000000000000000000000000000000000000080000000000000000000000000000000000000000000000000000000000000000d6875622d746573746e65742d33000000000000000000000000000000000000000000000000000000000000000000000000000000000000000000000000000008636c69656e742d33000000000000000000000000000000000000000000000000",
          "blockHash": "0x51bb9b6c0ed1c03520f60044cae0f97c8df3c5202523fc472ab271354846c426",
          "blockNumber": "0x15374c1",
          "transactionHash": "0x33be1b480bb2fcaff56519afd4dfc349984dae98f43784729d554bb32c705826",
          "transactionIndex": "0xd7",
          "logIndex": "0x1c4",
          "removed": false
        }
      ],
      "logsBloom": "0x00000000000000000000000000000100000000000080000002000000000000000000000000000000000000000000000000000000000000000000000000000000000200000000000000000000000000000000000000000000000000000000000000000100000000000000000000000000000000000000000000000000000000000000000000000000000000000000000000000000000000000000000000000000000000000000000000000000000000000000000000000000000000000000000000000000000000000000000000000000000000000000000000000000000000000000000000000000100000000000000000000000000000000000000000000000",
      "type": "0x2",
      "transactionHash": "0x33be1b480bb2fcaff56519afd4dfc349984dae98f43784729d554bb32c705826",
      "transactionIndex": "0xd7",
      "blockHash": "0x51bb9b6c0ed1c03520f60044cae0f97c8df3c5202523fc472ab271354846c426",
      "blockNumber": "0x15374c1",
      "gasUsed": "0xfc2f",
      "effectiveGasPrice": "0x57f3798b",
      "from": "0x64259f722a0868ccf58a935c61a292cea9df035a",
      "to": "0x3af134307d5ee90faa2ba9cdba14ba66414cf1a7",
      "contractAddress": null
    }
  ],
  "libraries": [],
  "pending": [],
  "returns": {},
  "timestamp": 1744385270,
  "chain": 1,
  "commit": "3d87dba"
}