{
  "transactions": [
    {
      "hash": "0x04d4d03c34bf614001f155209ee92389f8ddddbda01f4c96d3081f85fb348559",
      "transactionType": "CALL",
      "contractName": null,
      "contractAddress": "0x3af134307d5ee90faa2ba9cdba14ba66414cf1a7",
      "function": "migrateClient(string,string)",
      "arguments": [
        "cosmoshub-0",
        "client-0"
      ],
      "transaction": {
        "from": "0x64259f722a0868ccf58a935c61a292cea9df035a",
        "to": "0x3af134307d5ee90faa2ba9cdba14ba66414cf1a7",
        "gas": "0x15c32",
        "value": "0x0",
        "input": "0x9ea7ff9900000000000000000000000000000000000000000000000000000000000000400000000000000000000000000000000000000000000000000000000000000080000000000000000000000000000000000000000000000000000000000000000b636f736d6f736875622d300000000000000000000000000000000000000000000000000000000000000000000000000000000000000000000000000000000008636c69656e742d30000000000000000000000000000000000000000000000000",
        "nonce": "0x3f",
        "chainId": "0x1"
      },
      "additionalContracts": [],
      "isFixedGasLimit": false
    }
  ],
  "receipts": [
    {
      "status": "0x1",
      "cumulativeGasUsed": "0x1568da5",
      "logs": [
        {
          "address": "0x3af134307d5ee90faa2ba9cdba14ba66414cf1a7",
          "topics": [
            "0x463efa06bb86a991e2699ec804ab65d99abe14cc1466de129e9da101cd39e95c"
          ],
          "data": "0x00000000000000000000000000000000000000000000000000000000000000400000000000000000000000000000000000000000000000000000000000000080000000000000000000000000000000000000000000000000000000000000000b636f736d6f736875622d300000000000000000000000000000000000000000000000000000000000000000000000000000000000000000000000000000000008636c69656e742d30000000000000000000000000000000000000000000000000",
          "blockHash": "0x85a015566c27b8a384d6c72bb73c2d20feba0518789f66b175bc91605704c797",
          "blockNumber": "0x153464c",
          "transactionHash": "0x04d4d03c34bf614001f155209ee92389f8ddddbda01f4c96d3081f85fb348559",
          "transactionIndex": "0x10f",
          "logIndex": "0x21e",
          "removed": false
        }
      ],
      "logsBloom": "0x00000000000000000000000000000100000000000080000002000000000000000000000000000000000000000000000000000000000000000000000000000000000200000000000000000000000000000000000000000000000000000000000000000100000000000000000000000000000000000000000000000000000000000000000000000000000000000000000000000000000000000000000000000000000000000000000000000000000000000000000000000000000000000000000000000000000000000000000000000000000000000000000000000000000000000000000000000000100000000000000000000000000000000000000000000000",
      "type": "0x2",
      "transactionHash": "0x04d4d03c34bf614001f155209ee92389f8ddddbda01f4c96d3081f85fb348559",
      "transactionIndex": "0x10f",
      "blockHash": "0x85a015566c27b8a384d6c72bb73c2d20feba0518789f66b175bc91605704c797",
      "blockNumber": "0x153464c",
      "gasUsed": "0xfc17",
      "effectiveGasPrice": "0x1f646416",
      "from": "0x64259f722a0868ccf58a935c61a292cea9df035a",
      "to": "0x3af134307d5ee90faa2ba9cdba14ba66414cf1a7",
      "contractAddress": null
    }
  ],
  "libraries": [],
  "pending": [],
  "returns": {},
  "timestamp": 1744242086,
  "chain": 1,
  "commit": "16acb31"
}