{
  "transactions": [
    {
      "hash": "0xfcde9cc37fe3ea419dc79a274f31d08ba1b62f628b0eaf54a468115f601b8a60",
      "transactionType": "CALL",
      "contractName": null,
      "contractAddress": "0x3af134307d5ee90faa2ba9cdba14ba66414cf1a7",
      "function": "migrateClient(string,string)",
      "arguments": [
        "ledger-mainnet-1",
        "client-1"
      ],
      "transaction": {
        "from": "0x64259f722a0868ccf58a935c61a292cea9df035a",
        "to": "0x3af134307d5ee90faa2ba9cdba14ba66414cf1a7",
        "gas": "0x17105",
        "value": "0x0",
        "input": "0x9ea7ff990000000000000000000000000000000000000000000000000000000000000040000000000000000000000000000000000000000000000000000000000000008000000000000000000000000000000000000000000000000000000000000000106c65646765722d6d61696e6e65742d31000000000000000000000000000000000000000000000000000000000000000000000000000000000000000000000008636c69656e742d31000000000000000000000000000000000000000000000000",
        "nonce": "0x40",
        "chainId": "0x1"
      },
      "additionalContracts": [],
      "isFixedGasLimit": false
    }
  ],
  "receipts": [
    {
      "status": "0x1",
      "cumulativeGasUsed": "0x18aa8e7",
      "logs": [
        {
          "address": "0x3af134307d5ee90faa2ba9cdba14ba66414cf1a7",
          "topics": [
            "0x463efa06bb86a991e2699ec804ab65d99abe14cc1466de129e9da101cd39e95c"
          ],
          "data": "0x0000000000000000000000000000000000000000000000000000000000000040000000000000000000000000000000000000000000000000000000000000008000000000000000000000000000000000000000000000000000000000000000106c65646765722d6d61696e6e65742d31000000000000000000000000000000000000000000000000000000000000000000000000000000000000000000000008636c69656e742d31000000000000000000000000000000000000000000000000",
          "blockHash": "0x94c8a94cd5800eb3de58eb585d5862e5ce78cb30142a0ea24998e05532f96dfd",
          "blockNumber": "0x153464e",
          "transactionHash": "0xfcde9cc37fe3ea419dc79a274f31d08ba1b62f628b0eaf54a468115f601b8a60",
          "transactionIndex": "0x3e",
          "logIndex": "0x172",
          "removed": false
        }
      ],
      "logsBloom": "0x00000000000000000000000000000100000000000080000002000000000000000000000000000000000000000000000000000000000000000000000000000000000200000000000000000000000000000000000000000000000000000000000000000100000000000000000000000000000000000000000000000000000000000000000000000000000000000000000000000000000000000000000000000000000000000000000000000000000000000000000000000000000000000000000000000000000000000000000000000000000000000000000000000000000000000000000000000000100000000000000000000000000000000000000000000000",
      "type": "0x2",
      "transactionHash": "0xfcde9cc37fe3ea419dc79a274f31d08ba1b62f628b0eaf54a468115f601b8a60",
      "transactionIndex": "0x3e",
      "blockHash": "0x94c8a94cd5800eb3de58eb585d5862e5ce78cb30142a0ea24998e05532f96dfd",
      "blockNumber": "0x153464e",
      "gasUsed": "0xfc53",
      "effectiveGasPrice": "0x28d05dc5",
      "from": "0x64259f722a0868ccf58a935c61a292cea9df035a",
      "to": "0x3af134307d5ee90faa2ba9cdba14ba66414cf1a7",
      "contractAddress": null
    }
  ],
  "libraries": [],
  "pending": [],
  "returns": {},
  "timestamp": 1744242111,
  "chain": 1,
  "commit": "16acb31"
}