{
  "transactions": [
    {
      "hash": "0x143057aefb04227f98cef4d9490b90a31011b95814c6430f9fb6b91c77aae32e",
      "transactionType": "CALL",
      "contractName": null,
      "contractAddress": "0x3a4e076d1c5ebfc813993c497bb284598121b515",
      "function": "setCustomERC20(string,address)",
      "arguments": [
        "transfer/hub-testnet-0/transfer/channel-366/uclbtc",
        "0x7c2A1D936fB76A1F5Ce7d2e4aa998a32d15fE3dd"
      ],
      "transaction": {
        "from": "0x15c1e4924e4f8ce261b5d5cfeb9b96c4bf035df9",
        "to": "0x3a4e076d1c5ebfc813993c497bb284598121b515",
        "gas": "0x28ac8",
        "value": "0x0",
        "input": "0xa1d28f5700000000000000000000000000000000000000000000000000000000000000400000000000000000000000007c2a1d936fb76a1f5ce7d2e4aa998a32d15fe3dd00000000000000000000000000000000000000000000000000000000000000327472616e736665722f6875622d746573746e65742d302f7472616e736665722f6368616e6e656c2d3336362f75636c6274630000000000000000000000000000",
        "nonce": "0xf",
        "chainId": "0xaa36a7"
      },
      "additionalContracts": [],
      "isFixedGasLimit": false
    }
  ],
  "receipts": [
    {
      "status": "0x1",
      "cumulativeGasUsed": "0x11dc6f4",
      "logs": [],
      "logsBloom": "0x00000000000000000000000000000000000000000000000000000000000000000000000000000000000000000000000000000000000000000000000000000000000000000000000000000000000000000000000000000000000000000000000000000000000000000000000000000000000000000000000000000000000000000000000000000000000000000000000000000000000000000000000000000000000000000000000000000000000000000000000000000000000000000000000000000000000000000000000000000000000000000000000000000000000000000000000000000000000000000000000000000000000000000000000000000000",
      "type": "0x2",
      "transactionHash": "0x143057aefb04227f98cef4d9490b90a31011b95814c6430f9fb6b91c77aae32e",
      "transactionIndex": "0x8f",
      "blockHash": "0x8b88e9f1279927ff39e894508f756d076b27174a9909080831bedf4149735118",
      "blockNumber": "0x808bda",
      "gasUsed": "0x1d728",
      "effectiveGasPrice": "0x94348a968",
      "from": "0x15c1e4924e4f8ce261b5d5cfeb9b96c4bf035df9",
      "to": "0x3a4e076d1c5ebfc813993c497bb284598121b515",
      "contractAddress": null
    }
  ],
  "libraries": [],
  "pending": [],
  "returns": {},
  "timestamp": 1748431107,
  "chain": 11155111,
  "commit": "b520159"
}