{
  "transactions": [
    {
      "hash": "0x3894fde49ac34f9c3386844efb9725d979c2ccbfeb5e7234bba29d79372eb859",
      "transactionType": "CALL",
      "contractName": null,
      "contractAddress": "0x14862c03a0caccc1ab328b062e64e31b2a1afcd7",
      "function": "grantMetadataCustomizerRole(address)",
      "arguments": [
        "0x64259f722A0868CCf58A935C61A292cEA9dF035a"
      ],
      "transaction": {
        "from": "0x64259f722a0868ccf58a935c61a292cea9df035a",
        "to": "0x14862c03a0caccc1ab328b062e64e31b2a1afcd7",
        "gas": "0x16b81",
        "value": "0x0",
        "input": "0x9ba10cfa00000000000000000000000064259f722a0868ccf58a935c61a292cea9df035a",
        "nonce": "0x38",
        "chainId": "0x1"
      },
      "additionalContracts": [],
      "isFixedGasLimit": false
    }
  ],
  "receipts": [
    {
      "status": "0x1",
      "cumulativeGasUsed": "0xc29236",
      "logs": [
        {
          "address": "0x14862c03a0caccc1ab328b062e64e31b2a1afcd7",
          "topics": [
            "0x2f8788117e7eff1d82e926ec794901d17c78024a50270940304540a733656f0d",
            "0x7a1895fcd50de5ac6ee6b0564c3555ee70793df850e5e55287a3b147a5658483",
            "0x00000000000000000000000064259f722a0868ccf58a935c61a292cea9df035a",
            "0x00000000000000000000000064259f722a0868ccf58a935c61a292cea9df035a"
          ],
          "data": "0x",
          "blockHash": "0x2664d8f6132a3f624f104f45cf408191fea80fa6d03caeec653c5798d4ab7509",
          "blockNumber": "0x1534108",
          "transactionHash": "0x3894fde49ac34f9c3386844efb9725d979c2ccbfeb5e7234bba29d79372eb859",
          "transactionIndex": "0xc1",
          "logIndex": "0x132",
          "removed": false
        }
      ],
      "logsBloom": "0x00000004000000000000000000000000000000000000000000000000000000000000000000000000000000000000000000000000000200000000000000000000000000000000000000000000000000000000000000000000000000000000000000000000000000000000000000040400000000000080010000000000000000000000000040000000000000000000000000000000000000000000000000000000000000080000000000000000000000000000000000000000001000000000000000000000000000000000000000000000000000000000000100000000000000000000000000000000000000000000000000000040000000000000000400000000",
      "type": "0x2",
      "transactionHash": "0x3894fde49ac34f9c3386844efb9725d979c2ccbfeb5e7234bba29d79372eb859",
      "transactionIndex": "0xc1",
      "blockHash": "0x2664d8f6132a3f624f104f45cf408191fea80fa6d03caeec653c5798d4ab7509",
      "blockNumber": "0x1534108",
      "gasUsed": "0x1072d",
      "effectiveGasPrice": "0x2414719b1",
      "from": "0x64259f722a0868ccf58a935c61a292cea9df035a",
      "to": "0x14862c03a0caccc1ab328b062e64e31b2a1afcd7",
      "contractAddress": null
    }
  ],
  "libraries": [],
  "pending": [],
  "returns": {},
  "timestamp": 1744225837,
  "chain": 1,
  "commit": "214779a"
}