{
  "transactions": [
    {
      "hash": "0x9dfb919674ec16fc0e1c382bc3b8deafcbf809215262a012e5f4eec04c9d51b9",
      "transactionType": "CALL",
      "contractName": null,
      "contractAddress": "0x2af0a519bf97a16acd30325ce1b2ee131c87e57c",
      "function": "grantMetadataCustomizerRole(address)",
      "arguments": [
        "0xAe3E5CCaF3216de61090E68Cf5a191f3b75CaAd3"
      ],
      "transaction": {
        "from": "0x64259f722a0868ccf58a935c61a292cea9df035a",
        "to": "0x2af0a519bf97a16acd30325ce1b2ee131c87e57c",
        "gas": "0x16b81",
        "value": "0x0",
        "input": "0x9ba10cfa000000000000000000000000ae3e5ccaf3216de61090e68cf5a191f3b75caad3",
        "nonce": "0x17",
        "chainId": "0x1"
      },
      "additionalContracts": [],
      "isFixedGasLimit": false
    }
  ],
  "receipts": [
    {
      "status": "0x1",
      "cumulativeGasUsed": "0x1405b71",
      "logs": [
        {
          "address": "0x2af0a519bf97a16acd30325ce1b2ee131c87e57c",
          "topics": [
            "0x2f8788117e7eff1d82e926ec794901d17c78024a50270940304540a733656f0d",
            "0x7a1895fcd50de5ac6ee6b0564c3555ee70793df850e5e55287a3b147a5658483",
            "0x000000000000000000000000ae3e5ccaf3216de61090e68cf5a191f3b75caad3",
            "0x00000000000000000000000064259f722a0868ccf58a935c61a292cea9df035a"
          ],
          "data": "0x",
          "blockHash": "0xfa239fd0b222cd2166910a1d169c28f9ee1d94c32a6de41da8354b0f1b04f582",
          "blockNumber": "0x151d0b1",
          "blockTimestamp": "0x67e56a5f",
          "transactionHash": "0x9dfb919674ec16fc0e1c382bc3b8deafcbf809215262a012e5f4eec04c9d51b9",
          "transactionIndex": "0xf1",
          "logIndex": "0x26c",
          "removed": false
        }
      ],
      "logsBloom": "0x00000004000000010000100000000004000000000000000000000000000020000000000000000000000000000000000000000000000000000000000000000000000000000000000000000000000000000000000000000000000000000000000000000000000000000000000000040400000000000080010000000000000000000000000040000000000000000010000000000000000000000000000000000000000000000000000000000000000000000001000000000000001000000000000000000000000000000000000000000000000000000000000100000000000000000000000000000000000000000000000000000040000000000000000000000000",
      "type": "0x2",
      "transactionHash": "0x9dfb919674ec16fc0e1c382bc3b8deafcbf809215262a012e5f4eec04c9d51b9",
      "transactionIndex": "0xf1",
      "blockHash": "0xfa239fd0b222cd2166910a1d169c28f9ee1d94c32a6de41da8354b0f1b04f582",
      "blockNumber": "0x151d0b1",
      "gasUsed": "0x1072d",
      "effectiveGasPrice": "0x6bde7d17",
      "from": "0x64259f722a0868ccf58a935c61a292cea9df035a",
      "to": "0x2af0a519bf97a16acd30325ce1b2ee131c87e57c",
      "contractAddress": null
    }
  ],
  "libraries": [],
  "pending": [],
  "returns": {},
  "timestamp": 1743088226,
  "chain": 1,
  "commit": "3f332ab"
}