{
  "transactions": [
    {
      "hash": "0xe652c768fb5c75fa601fcbad8adf018d91e983d1f4c2ac4ee37a5c7aae94accb",
      "transactionType": "CALL",
      "contractName": null,
      "contractAddress": "0x2af0a519bf97a16acd30325ce1b2ee131c87e57c",
      "function": "grantMetadataCustomizerRole(address)",
      "arguments": [
        "0x64259f722A0868CCf58A935C61A292cEA9dF035a"
      ],
      "transaction": {
        "from": "0x64259f722a0868ccf58a935c61a292cea9df035a",
        "to": "0x2af0a519bf97a16acd30325ce1b2ee131c87e57c",
        "gas": "0x16b81",
        "value": "0x0",
        "input": "0x9ba10cfa00000000000000000000000064259f722a0868ccf58a935c61a292cea9df035a",
        "nonce": "0x18",
        "chainId": "0x1"
      },
      "additionalContracts": [],
      "isFixedGasLimit": false
    }
  ],
  "receipts": [
    {
      "status": "0x1",
      "cumulativeGasUsed": "0xee718d",
      "logs": [
        {
          "address": "0x2af0a519bf97a16acd30325ce1b2ee131c87e57c",
          "topics": [
            "0x2f8788117e7eff1d82e926ec794901d17c78024a50270940304540a733656f0d",
            "0x7a1895fcd50de5ac6ee6b0564c3555ee70793df850e5e55287a3b147a5658483",
            "0x00000000000000000000000064259f722a0868ccf58a935c61a292cea9df035a",
            "0x00000000000000000000000064259f722a0868ccf58a935c61a292cea9df035a"
          ],
          "data": "0x",
          "blockHash": "0x4ee24f3ee2fa222d3ddf7e0b31c6d86d22369b6b1804781df122469c62bdd9b0",
          "blockNumber": "0x151d0cf",
          "blockTimestamp": "0x67e56bc7",
          "transactionHash": "0xe652c768fb5c75fa601fcbad8adf018d91e983d1f4c2ac4ee37a5c7aae94accb",
          "transactionIndex": "0xbd",
          "logIndex": "0x2c5",
          "removed": false
        }
      ],
      "logsBloom": "0x00000004000000010000000000000004000000000000000000000000000000000000000000000000000000000000000000000000000000000000000000000000000000000000000000000000000000000000000000000000000000000000000000000000000000000000000000040400000000000080010000000000000000000000000040000000000000000010000000000000000000000000000000000000000000000000000000000000000000000000000000000000001000000000000000000000000000000000000000000000000000000000000100000000000000000000000000000000000000000000000000000040000000000000000000000000",
      "type": "0x2",
      "transactionHash": "0xe652c768fb5c75fa601fcbad8adf018d91e983d1f4c2ac4ee37a5c7aae94accb",
      "transactionIndex": "0xbd",
      "blockHash": "0x4ee24f3ee2fa222d3ddf7e0b31c6d86d22369b6b1804781df122469c62bdd9b0",
      "blockNumber": "0x151d0cf",
      "gasUsed": "0x1072d",
      "effectiveGasPrice": "0x74d34029",
      "from": "0x64259f722a0868ccf58a935c61a292cea9df035a",
      "to": "0x2af0a519bf97a16acd30325ce1b2ee131c87e57c",
      "contractAddress": null
    }
  ],
  "libraries": [],
  "pending": [],
  "returns": {},
  "timestamp": 1743088585,
  "chain": 1,
  "commit": "3f332ab"
}