{
  "transactions": [
    {
      "hash": "0x31aab88bd43dc7b87189b1d40dc173fce4a512a8ca707a5257ba831e4b8eb7d7",
      "transactionType": "CALL",
      "contractName": null,
      "contractAddress": "0xbf6bc6782f7eb580312cc09b976e9329f3e027b3",
      "function": "grantMetadataCustomizerRole(address)",
      "arguments": [
        "0x64259f722A0868CCf58A935C61A292cEA9dF035a"
      ],
      "transaction": {
        "from": "0x64259f722a0868ccf58a935c61a292cea9df035a",
        "to": "0xbf6bc6782f7eb580312cc09b976e9329f3e027b3",
        "gas": "0x16b81",
        "value": "0x0",
        "input": "0x9ba10cfa00000000000000000000000064259f722a0868ccf58a935c61a292cea9df035a",
        "nonce": "0x22",
        "chainId": "0x1"
      },
      "additionalContracts": [],
      "isFixedGasLimit": false
    }
  ],
  "receipts": [
    {
      "status": "0x1",
      "cumulativeGasUsed": "0xd5d2e0",
      "logs": [
        {
          "address": "0xbf6bc6782f7eb580312cc09b976e9329f3e027b3",
          "topics": [
            "0x2f8788117e7eff1d82e926ec794901d17c78024a50270940304540a733656f0d",
            "0x7a1895fcd50de5ac6ee6b0564c3555ee70793df850e5e55287a3b147a5658483",
            "0x00000000000000000000000064259f722a0868ccf58a935c61a292cea9df035a",
            "0x00000000000000000000000064259f722a0868ccf58a935c61a292cea9df035a"
          ],
          "data": "0x",
          "blockHash": "0x66e0587f6a4161ea1c0efbbb2504947ffd31a8c7c01a098c2aaf3f4bbbf77c53",
          "blockNumber": "0x151e8e1",
          "blockTimestamp": "0x67e68e5b",
          "transactionHash": "0x31aab88bd43dc7b87189b1d40dc173fce4a512a8ca707a5257ba831e4b8eb7d7",
          "transactionIndex": "0x9a",
          "logIndex": "0x174",
          "removed": false
        }
      ],
      "logsBloom": "0x00000004000000000000000000000000000000010000000000000000000000000000000000000000000000000000000000000000000000000000000000000000000000000000000000000000000000000000000000000000000000000000000000000000000000000000000000040400000001000080010000000000000000000000000040000000000000000000000000200000000000000000000000000000000000000000000000000000000000000000000000000000001000000000000000000000000000000000000000000000000000000000000100000000000000000000000000000000000000000000000000000040000000000000000000000000",
      "type": "0x2",
      "transactionHash": "0x31aab88bd43dc7b87189b1d40dc173fce4a512a8ca707a5257ba831e4b8eb7d7",
      "transactionIndex": "0x9a",
      "blockHash": "0x66e0587f6a4161ea1c0efbbb2504947ffd31a8c7c01a098c2aaf3f4bbbf77c53",
      "blockNumber": "0x151e8e1",
      "gasUsed": "0x1072d",
      "effectiveGasPrice": "0x2cb23cba",
      "from": "0x64259f722a0868ccf58a935c61a292cea9df035a",
      "to": "0xbf6bc6782f7eb580312cc09b976e9329f3e027b3",
      "contractAddress": null
    }
  ],
  "libraries": [],
  "pending": [],
  "returns": {},
  "timestamp": 1743162974,
  "chain": 1,
  "commit": "4584369"
}